:020000040800F2
:1000000000800120052300088920000897200008AF
:100010009D200008A3200008A9200008000000007F
:10002000000000000000000000000000AF200008F9
:10003000BD20000800000000CB200008D9200008E7
:1000400055230008552300085523000855230008B0
:1000500055230008552300085523000855230008A0
:10006000552300085523000855230008E520000803
:100070005523000855230008552300085523000880
:100080005523000855230008552300085523000870
:100090005523000855230008552300085523000860
:1000A0005523000855230008552300085523000850
:1000B0005523000855230008552300085523000840
:1000C000552300085523000855230008F92000088F
:1000D0005523000855230008552300085523000820
:1000E0005523000855230008552300085523000810
:1000F0005523000855230008552300085523000800
:1001000055230008552300085523000855230008EF
:1001100055230008552300085523000855230008DF
:1001200055230008552300085523000855230008CF
:1001300055230008552300085523000855230008BF
:1001400055230008552300085523000855230008AF
:10015000552300085523000855230008552300089F
:10016000552300085523000855230008552300088F
:1001700055230008552300085523000800000000FF
:08018000552300085523000877
:1001900010B5054C237833B9044B13B10448AFF3C1
:1001A00000800123237010BDE0010020000000004A
:1001B00098B3000808B5034B1BB103490348AFF3DC
:1001C000008008BD00000000E401002098B3000892
:1001D000034613F8012B002AFBD1181A0138704787
:1001E00001F0FF01102A2BDB10F0070F08D010F8E8
:1001F000013B013A8B422DD010F0070F42B3F6D1EC
:10020000F0B441EA012141EA014122F007047FF004
:1002100000070023F0E80256083C85EA010586EA5B
:10022000010685FA47F5A3FA87F586FA47F6A5FA97
:1002300087F68EB9EED1F0BC01F0FF0102F00702A3
:1002400032B110F8013B013A83EA010313B1F8D14E
:100250000020704701387047002D06BF354603382F
:10026000073815F0010F07D1013015F4807F02BF68
:10027000013015F4C03F0130F0BC0138704700BFB9
:1002800081F0004102E000BF83F0004330B54FEA47
:1002900041044FEA430594EA050F08BF90EA020FB4
:1002A0001FBF54EA000C55EA020C7FEA645C7FEA47
:1002B000655C00F0E2804FEA5454D4EB5555B8BF6A
:1002C0006D420CDD2C4480EA020281EA030382EADB
:1002D000000083EA010180EA020281EA0303362D6D
:1002E00088BF30BD11F0004F4FEA01314FF4801C40
:1002F0004CEA113102D0404261EB410113F0004F52
:100300004FEA03334CEA133302D0524263EB430308
:1003100094EA050F00F0A780A4F10104D5F1200EA6
:100320000DDB02FA0EFC22FA05F2801841F1000101
:1003300003FA0EF2801843FA05F359410EE0A5F1D5
:1003400020050EF1200E012A03FA0EFC28BF4CF006
:10035000020C43FA05F3C01851EBE37101F00045BC
:1003600007D54FF0000EDCF1000C7EEB00006EEBC9
:100370000101B1F5801F1BD3B1F5001F0CD3490853
:100380005FEA30004FEA3C0C04F101044FEA4452AA
:1003900012F5800F80F09A80BCF1004F08BF5FEA31
:1003A000500C50F1000041EB045141EA050130BD11
:1003B0005FEA4C0C404141EB0101013C28BFB1F523
:1003C000801FE9D291F0000F04BF01460020B1FA6E
:1003D00081F308BF2033A3F10B03B3F120020CDA41
:1003E0000C3208DD02F1140CC2F10C0201FA0CF01F
:1003F00021FA02F10CE002F11402D8BFC2F1200C84
:1004000001FA02F120FA0CFCDCBF41EA0C01904039
:10041000E41AA2BF01EB0451294330BD6FEA040482
:100420001F3C1CDA0C340EDC04F11404C4F120026D
:1004300020FA04F001FA02F340EA030021FA04F37F
:1004400045EA030130BDC4F10C04C4F1200220FAD6
:1004500002F001FA04F340EA0300294630BD21FA14
:1004600004F0294630BD94F0000F83F4801306BFDA
:1004700081F480110134013D4EE77FEA645C18BFCE
:100480007FEA655C29D094EA050F08BF90EA020F65
:1004900005D054EA000C04BF1946104630BD91EA5D
:1004A000030F1EBF0021002030BD5FEA545C05D160
:1004B0004000494128BF41F0004130BD14F580049F
:1004C0003CBF01F5801130BD01F0004545F0FE4113
:1004D00041F470014FF0000030BD7FEA645C1ABF48
:1004E000194610467FEA655C1CBF0B46024650EA7F
:1004F000013406BF52EA033591EA030F41F40021AB
:1005000030BD00BF90F0000F04BF0021704730B530
:100510004FF4806404F132044FF000054FF0000105
:1005200050E700BF90F0000F04BF0021704730B5C6
:100530004FF4806404F1320410F0004548BF40429B
:100540004FF000013EE700BF42004FEAE2014FEAF0
:1005500031014FEA02701FBF12F07F4393F07F4FCB
:1005600081F06051704732F07F4208BF704793F0CE
:100570007F4F04BF41F40021704730B54FF46074E1
:1005800001F0004521F000411CE700BF50EA0102E4
:1005900008BF704730B54FF000050AE050EA01028D
:1005A00008BF704730B511F0004502D5404261EBFD
:1005B00041014FF4806404F132045FEA915C3FF43E
:1005C000D8AE4FF003025FEADC0C18BF03325FEADB
:1005D000DC0C18BF033202EBDC02C2F1200300FA8C
:1005E00003FC20FA02F001FA03FE40EA0E0021FAB1
:1005F00002F11444BDE600BF70B54FF0FF0C4CF49F
:10060000E06C1CEA11541DBF1CEA135594EA0C0F50
:1006100095EA0C0F00F0DEF82C4481EA030621EA8B
:100620004C5123EA4C5350EA013518BF52EA0335C6
:1006300041F4801143F4801338D0A0FB02CE4FF078
:100640000005E1FB02E506F00042E0FB03E54FF0A8
:100650000006E1FB03569CF0000F18BF4EF0010EA0
:10066000A4F1FF04B6F5007F64F5407404D25FEA9C
:100670004E0E6D4146EB060642EAC62141EA55514F
:100680004FEAC52040EA5E504FEACE2EB4F1FD0C91
:1006900088BFBCF5E06F1ED8BEF1004F08BF5FEA0F
:1006A000500E50F1000041EB045170BD06F00046C1
:1006B00046EA010140EA020081EA0301B4EB5C046E
:1006C000C2BFD4EB0C0541EA045170BD41F4801166
:1006D0004FF0000E013C00F3AB8014F1360FDEBF8B
:1006E000002001F0004170BDC4F10004203C35DA67
:1006F0000C341BDC04F11404C4F1200500FA05F3EA
:1007000020FA04F001FA05F240EA020001F000428A
:1007100021F0004110EBD37021FA04F642EB060100
:100720005EEA430E08BF20EAD37070BDC4F10C042A
:10073000C4F1200500FA04F320FA05F001FA04F2EE
:1007400040EA020001F0004110EBD37041F10001DA
:100750005EEA430E08BF20EAD37070BDC4F12005E5
:1007600000FA05F24EEA020E20FA04F301FA05F24D
:1007700043EA020321FA04F001F0004121FA04F2F5
:1007800020EA020000EBD3705EEA430E08BF20EAC5
:10079000D37070BD94F0000F0FD101F000464000FF
:1007A00041EB010111F4801F08BF013CF7D041EA81
:1007B000060195F0000F18BF704703F00046520085
:1007C00043EB030313F4801F08BF013DF7D043EA56
:1007D0000603704794EA0C0F0CEA135518BF95EA0C
:1007E0000C0F0CD050EA410618BF52EA4306D1D193
:1007F00081EA030101F000414FF0000070BD50EAB2
:10080000410606BF1046194652EA430619D094EA3B
:100810000C0F02D150EA013613D195EA0C0F05D125
:1008200052EA03361CBF104619460AD181EA030179
:1008300001F0004141F0FE4141F470014FF0000031
:1008400070BD41F0FE4141F4780170BD70B54FF0CC
:10085000FF0C4CF4E06C1CEA11541DBF1CEA13554C
:1008600094EA0C0F95EA0C0F00F0A7F8A4EB05042E
:1008700081EA030E52EA03354FEA013100F0888025
:100880004FEA03334FF0805545EA131343EA1263EE
:100890004FEA022245EA111545EA10654FEA0026A3
:1008A0000EF000419D4208BF964244F1FD0404F55C
:1008B000407402D25B084FEA3202B61A65EB0305B8
:1008C0005B084FEA32024FF480104FF4002CB6EB75
:1008D000020E75EB030E22BFB61A754640EA0C00F5
:1008E0005B084FEA3202B6EB020E75EB030E22BF35
:1008F000B61A754640EA5C005B084FEA3202B6EB76
:10090000020E75EB030E22BFB61A754640EA9C0034
:100910005B084FEA3202B6EB020E75EB030E22BF04
:10092000B61A754640EADC0055EA060E18D04FEAC2
:10093000051545EA16754FEA06164FEAC30343EA62
:1009400052734FEAC2025FEA1C1CC0D111F4801F2F
:100950000BD141EA00014FF000004FF0004CB6E728
:1009600011F4801F04BF01430020B4F1FD0C88BFC7
:10097000BCF5E06F3FF6AFAEB5EB030C04BFB6EBD2
:10098000020C5FEA500C50F1000041EB045170BDC5
:100990000EF0004E4EEA113114EB5C04C2BFD4EBF2
:1009A0000C0541EA045170BD41F480114FF0000E76
:1009B000013C90E645EA060E8DE60CEA135594EAF2
:1009C0000C0F08BF95EA0C0F3FF43BAF94EA0C0FF5
:1009D0000AD150EA01347FF434AF95EA0C0F7FF46A
:1009E00025AF104619462CE795EA0C0F06D152EABE
:1009F00003353FF4FDAE1046194622E750EA4106A2
:100A000018BF52EA43067FF4C5AE50EA41047FF4B2
:100A10000DAF52EA43057FF4EBAE12E74FF0FF3C17
:100A200006E000BF4FF0010C02E000BF4FF0010CE8
:100A30004DF804CD4FEA410C7FEA6C5C4FEA430C61
:100A400018BF7FEA6C5C1BD001B050EA410C0CBFB0
:100A500052EA430C91EA030F02BF90EA020F002012
:100A6000704710F1000F91EA030F58BF994208BF79
:100A700090422CBFD8176FEAE37040F00100704736
:100A80004FEA410C7FEA6C5C02D150EA013C07D18D
:100A90004FEA430C7FEA6C5CD6D152EA033CD3D0D8
:100AA0005DF8040B704700BF8446104662468C46D2
:100AB0001946634600E000BF01B5FFF7B7FF002805
:100AC00048BF10F1000F01BD4DF808EDFFF7F4FF2E
:100AD0000CBF012000205DF808FB00BF4DF808EDB9
:100AE000FFF7EAFF34BF012000205DF808FB00BFDC
:100AF0004DF808EDFFF7E0FF94BF012000205DF8FE
:100B000008FB00BF4DF808EDFFF7CEFF94BF0120B2
:100B100000205DF808FB00BF4DF808EDFFF7C4FFAB
:100B200034BF012000205DF808FB00BF4FEA410CF4
:100B30007FEA6C5C02D150EA013C0AD14FEA430CD7
:100B40007FEA6C5C02D152EA033C02D14FF0000014
:100B500070474FF0010070474FEA410212F5001252
:100B600015D211D56FF47873B3EB625212D94FEAF4
:100B7000C12343F0004343EA505311F0004F23FADE
:100B800002F018BF404270474FF00000704750EA33
:100B9000013005D111F0004008BF6FF000407047F0
:100BA0004FF00000704700BF4A0011D212F500124A
:100BB00011D20DD56FF47873B3EB62520ED44FEAB5
:100BC000C12343F0004343EA505323FA02F0704735
:100BD0004FF00000704750EA013002D14FF0FF3073
:100BE00070474FF0000070474FEA4102B2F1E04316
:100BF00024BFB3F5001CDCF1FE5C0DD901F0004C04
:100C00004FEAC0024CEA5070B2F1004F40EB830053
:100C100008BF20F00100704711F0804F21D113F17F
:100C20003872BCBF01F00040704741F480114FEAB8
:100C30005252C2F11802C2F1200C10FA0CF320FA41
:100C400002F018BF40F001004FEAC1234FEAD3235E
:100C500003FA0CFC40EA0C0023FA02F34FEA4303C8
:100C6000CCE77FEA625307D150EA01331EBF4FF051
:100C7000FE4040F44000704701F0004040F0FE406C
:100C800040F40000704700BF53B94AB9002908BFBB
:100C900000281CBF4FF0FF314FF0FF3000F0A4B927
:100CA000ADF1080C6DE904CE00F03CF8DDF804E08D
:100CB000DDE9022304B0704738B500220023044662
:100CC0000D46FFF70BFF28B920462946BDE83840FE
:100CD00000F00AB8204605F1004100F005F8404256
:100CE00061EB410138BD00BFD0B50C4B0022064678
:100CF0000F46FFF781FCFFF757FF0446FFF702FCA2
:100D0000074B0022FFF778FC02460B463046394677
:100D1000FFF7BAFAFFF748FF2146D0BD0000F03DCB
:100D20000000F0412DE9F047089D04468C46002B59
:100D300040F083808A42174647D9B2FA82F242B124
:100D4000C2F1200024FA00F09140974040EA010CE3
:100D500094404FEA1748230CBCFBF8F61FFA87FEB5
:100D600008FB16C143EA014306FB0EF1994209D97B
:100D7000FB1806F1FF3080F01981994240F216818C
:100D8000023E3B445B1AA4B2B3FBF8F008FB1033FD
:100D900044EA034400FB0EFEA64509D93C1900F1C4
:100DA000FF3380F00581A64540F2028102383C44C1
:100DB00040EA0640A4EB0E0400261DB1D4400023F7
:100DC000C5E900433146BDE8F08702B9FFDEB2FA5B
:100DD00082F2002A50D1CB1B4FEA174E1FFA87F838
:100DE0000126B3FBFEFC210C0EFB1C3341EA034140
:100DF00008FB0CF38B4207D979180CF1FF3002D2B3
:100E00008B4200F2E9808446C91AA3B2B1FBFEF01E
:100E10000EFB101143EA014408FB00F8A04507D976
:100E20003C1900F1FF3302D2A04500F2D9801846E8
:100E3000A4EB080440EA0C40BFE78B4209D9002D1F
:100E400000F0B1800026C5E9000130463146BDE81A
:100E5000F087B3FA83F6002E4AD18B4202D3824246
:100E600000F2B880841A61EB030101208C46002D4A
:100E7000A8D0C5E9004CA5E7C2F1200320FA03F68B
:100E8000974001FA02F04FEA174ED9403043030C65
:100E9000B1FBFEF61FFA87F80EFB161143EA014379
:100EA00006FB08F1994204FA02F409D9FB1806F18D
:100EB000FF3C80F08D80994240F28A80023E3B44A4
:100EC0005B1A81B2B3FBFEF00EFB103341EA034123
:100ED00000FB08F38B4207D9791800F1FF3C73D26D
:100EE0008B4271D902383944CB1A40EA064678E77A
:100EF000C6F1200C03FA06F422FA0CF31C4320FA84
:100F00000CF701FA06F34FEA144E21FA0CF11F43D5
:100F10003B0CB1FBFEF91FFA84F80EFB191143EAF2
:100F2000014109FB08FA8A4502FA06F200FA06F3C3
:100F300008D9611809F1FF3048D28A4546D9A9F18C
:100F400002092144A1EB0A01BFB2B1FBFEF00EFB86
:100F5000101147EA014700FB08F8B84507D9E7191F
:100F600000F1FF312ED2B8452CD90238274440EA8F
:100F70000940A7EB0807A0FB02894F45C646494632
:100F80001AD317D05DB1B3EB0E0267EB010707FA76
:100F90000CFCF2404CEA0202F740C5E900270026AB
:100FA0003146BDE8F0872E4628460BE70646E9E6BF
:100FB0001846FDE64345E5D2B8EB020E69EB0401A5
:100FC0000138DFE70846D2E760468DE78146B9E79A
:100FD000664675E730464AE7ACF1020C394413E740
:100FE00002383C4424E700BF704700BF90B5BFB053
:100FF00004AF0023FB6307F140037B220021184666
:1010000005F09EFD0023C7F8C03001F0A4F94FF4AD
:101010008063C7F8BC300023C7F8E4300BE007F169
:101020003402D7F8E430134400221A70D7F8E430C1
:101030000133C7F8E430D7F8E430052BEFDDB64ACA
:1010400007F1140392E8030083E8030007F11C038F
:1010500000221A605A609A600123C7F8E030012329
:10106000C7F8DC3000F04CFA00F05CFC00F03CFC0F
:1010700000F00AFC00F09AFB00F0CEFA00F0D4FB7E
:1010800001224FF48071A54803F098F801228021D5
:10109000A24803F093F801224021A04803F08EF803
:1010A00006229F499F4801F01BFD07F13C039E4922
:1010B000184606F0CDFBC7F8C000D7F8C0309AB28A
:1010C00007F13C016423994805F08AF80023C7F82A
:1010D000D83014E001220221954803F06FF87D20FA
:1010E00001F0AEF900220221914803F067F87D205B
:1010F00001F0A6F9D7F8D8300133C7F8D830D7F8BF
:10110000D8300B2BE6DD01224FF48061884803F0D4
:1011100055F80023C7F8D43015E001220221844895
:1011200003F04CF87D2001F08BF900220221804869
:1011300003F044F840F26B3001F082F9D7F8D43074
:101140000133C7F8D430D7F8D430092BE5DD0023BC
:10115000C7F8D0301EE001220221754803F02EF8B6
:1011600001220421724803F029F87D2001F068F97A
:10117000002202216E4803F021F8002204216C486D
:1011800003F01CF87D2001F05BF9D7F8D030013373
:10119000C7F8D030D7F8D030132BDCDD0023C7F8E8
:1011A000CC30F5E0634B1B6897F83420D7F8BC10BF
:1011B000184600F099FC0346DBB287F834305D4BEB
:1011C0005B6897F83520D7F8BC10184600F08CFC07
:1011D0000346DBB287F83530564B9B6897F83620CC
:1011E000D7F8BC10184600F07FFC0346DBB287F846
:1011F000363097F834303B6397F83530FB6297F818
:101200003630BB6200224FF48071444802F0D6FFB2
:1012100007F130010A230122474804F096FB00BF82
:10122000454804F00BFE0346012BF9D101224FF48F
:1012300080713A4802F0C2FFC82001F001F9002293
:101240008021364802F0BAFF07F12C010A2301225F
:10125000394804F07AFB00BF374804F0EFFD03463D
:10126000012BF9D1012280212C4802F0A7FF002296
:1012700040212A4802F0A2FF07F128010A23012297
:101280002D4804F062FB00BF2B4804F0D7FD034655
:10129000012BF9D101224021204802F08FFF254B7C
:1012A0001C68244B5B68234A926807F13C00D7F81E
:1012B000E010039107F1140102910192009323467B
:1012C000D7F8DC201D4906F0C3FAC7F8C000D7F8EC
:1012D000C0309AB207F13C016423194804F080FF42
:1012E000D7F8E0300133C7F8E03007F13C03D7F816
:1012F000CC201449184606F0ABFAC7F8C000D7F85E
:10130000C0309AB207F13C016423084804F068FF3A
:101310000023C7F8C8302EE0D4B400080008004805
:10132000B403002008020020B0B30008CC03002062
:1013300000040048F002002050030020CCB3000855
:101340006C020020ECB30008D7F8C830581C07F135
:101350003402D7F8C83013441B781946604AD7F8CE
:10136000C83052F823301A4600F04EFBD7F8C83088
:101370000133C7F8C830D7F8C830022BE4DD40F29B
:10138000DC5001F05DF8D7F8CC300133C7F8CC3031
:10139000D7F8CC30092B7FF705AF01220221514845
:1013A00002F00CFF40F6B83001F04AF801220421A7
:1013B0004C4802F003FF40F6B83001F041F800223B
:1013C0000221484802F0FAFE474A3B4692E80300F1
:1013D00018600433198002330A0C1A70FB1D0022B6
:1013E0001A605A609A601A730023C7F8C4305CE030
:1013F0003B4B1C683A4B5B68394A926807F13C00EA
:10140000D7F8E010039139460291019200932346E8
:10141000D7F8DC20354906F01BFAC7F8C000D7F82A
:10142000C0309AB207F13C016423314804F0D8FE81
:101430003A6BFB6A07F13C002E4906F009FAC7F83F
:10144000C000D7F8C0309AB207F13C0164232A48A3
:1014500004F0C6FE224B1968214B5B6807F13C0083
:10146000D7F8E02002923A46019200930B46D7F853
:10147000DC20224906F0ECF9C7F8C000D7F8C030EC
:101480009AB207F13C0164231B4804F0A9FED7F887
:10149000E0300133C7F8E03040F2DC5000F0D0FF1C
:1014A000D7F8C4300133C7F8C430D7F8C430092B9B
:1014B0009EDD0023C7F8E0300123C7F8DC300022AE
:1014C0004FF48061074802F079FE002204210548AC
:1014D00002F074FE40F2DC5000F0B2FFE5E500BF20
:1014E000F002002000040048E8B40008CCB3000873
:1014F0006C020020F8B30008CC030020A0B4000860
:1015000080B5B8B000AF07F19C0344220021184613
:1015100005F016FB07F1880300221A605A609A60F2
:10152000DA601A613B4688220021184605F008FB64
:101530001023C7F89C300123C7F8B4300023C7F844
:10154000B8306023C7F8BC300223C7F8C430012389
:10155000C7F8C8300123C7F8CC302823C7F8D030EB
:101560000723C7F8D4300223C7F8D8300223C7F8BE
:10157000DC3007F19C03184602F09CFE0346002B6A
:1015800001D000F011FC0F23C7F888300323C7F8FF
:101590008C300023C7F890300023C7F89430002324
:1015A000C7F8983007F188030421184603F068FA59
:1015B0000346002B01D000F0F7FB44F203033B602D
:1015C0000023BB630423FB634FF08053BB670123FD
:1015D0007B600123BB601023FB6007233B61022378
:1015E0007B610223BB614FF08073FB613B46184671
:1015F00003F04CFC0346002B01D000F0D5FB4FF468
:10160000007002F001FE0346002B01D000F0CCFB7D
:1016100000BFE037BD4680BD80B58AB000AF07F19E
:101620001C0300221A605A609A603B1D00221A6057
:101630005A609A60DA601A615A61544B544A1A60CF
:10164000524B4FF480225A60504B00229A604F4B0D
:101650000022DA604D4B01221A614C4B04225A6180
:101660004A4B00221A76494B01225A76474B0622F2
:10167000DA61464B002283F82020444B00229A6214
:10168000424B0022DA62414B012283F830203F4B6B
:1016900000225A633D4B002283F838203B4801F07A
:1016A000C9F80346002B01D000F07EFB0023FB614C
:1016B00007F11C031946354801F0DCFF0346002BF7
:1016C00001D000F071FB334B7B600623BB6000232D
:1016D000FB607F233B6104237B610023BB613B1DD7
:1016E00019462A4801F0BAFA0346002B01D000F04F
:1016F0005BFB294B7B600C23BB603B1D19462348D9
:1017000001F0ACFA0346002B01D000F04DFB234B57
:101710007B601223BB603B1D19461C4801F09EFAFA
:101720000346002B01D000F03FFB1D4B7B601823CC
:10173000BB603B1D1946154801F090FA0346002B8B
:1017400001D000F031FB174B7B604FF48073BB601E
:101750003B1D19460D4801F081FA0346002B01D0CC
:1017600000F022FB104B7B604FF48373BB603B1D8A
:101770001946064801F072FA0346002B01D000F02A
:1017800013FB00BF2837BD4680BD00BF0802002004
:101790000000045002003004040060080800900CAF
:1017A0001000C0102000F0144000201980B500AFD8
:1017B0001B4B1C4A1A601A4B4FF482725A60184B2A
:1017C00000229A60164B4FF47062DA60144B0022CC
:1017D0001A61134B00225A61114B4FF400729A6147
:1017E0000F4B3022DA610E4B00221A620C4B0022A2
:1017F0005A620B4B00229A62094B0722DA62084BAD
:1018000000221A63064B00225A63054803F0FAFFD0
:101810000346002B01D000F0C7FA00BF80BD00BF17
:10182000500300200030014080B500AF144B154A32
:101830001A60134B4FF416525A60114B00229A60F3
:101840000F4B0022DA600E4B00221A610C4B0C2267
:101850005A610B4B00229A61094B0022DA61084B56
:1018600000221A62064B00225A62054804F06AFC04
:101870000346002B01D000F097FA00BF80BD00BFE7
:101880006C0200200038014080B500AF144B154AAF
:101890001A60134B4FF4E1325A60114B00229A60E8
:1018A0000F4B0022DA600E4B00221A610C4B0C2207
:1018B0005A610B4B00229A61094B0022DA61084BF6
:1018C00000221A62064B00225A62054804F03AFCD4
:1018D0000346002B01D000F067FA00BF80BD00BFB7
:1018E000CC0300200044004080B582B000AF0C4B18
:1018F0009B6C0B4A43F001039364094B9B6C03F010
:1019000001037B607B68002200210B2002F03DF880
:101910000B2002F056F800BF0837BD4680BD00BF5F
:101920000010024080B588B000AF07F10C03002220
:101930001A605A609A60DA601A61304BDB6C2F4A89
:1019400043F00403D3642D4BDB6C03F00403BB6052
:10195000BB682A4BDB6C294A43F00103D364274B55
:10196000DB6C03F001037B607B68244BDB6C234A58
:1019700043F00203D364214BDB6C03F002033B60B2
:101980003B68002240F206411D4802F017FC00228D
:101990004FF4E0711B4802F011FC40F20643FB607B
:1019A00001233B6100237B610023BB6107F10C0332
:1019B0001946134802F058FA4FF4E073FB60012314
:1019C0003B6100237B610023BB6107F10C031946D7
:1019D0000C4802F049FA4FF4F853FB6000233B61D6
:1019E00000237B6107F10C0319464FF0904002F091
:1019F0003BFA00BF2037BD4680BD00BF001002404B
:101A00000004004800080048F0B5E7B006AF07F151
:101A10000C03186007F1080319603B1D1A6007F1F9
:101A2000140300221A6004334FF4AD7200211846EB
:101A300005F086F80023C7F87C313B1D1868FEF7D7
:101A400071FD27A3D3E90023FEF7D6FD02460B461E
:101A500010461946FFF7C8F80346C7F8783107F172
:101A600008031B684E2202FB03F307EE903AF8EEE0
:101A7000E77AC7ED5D7AD7F87401FEF765FD044695
:101A80000D46D7F87801FEF75FFD02460B4607F1D9
:101A9000080007F10C0107F11406CDE904233B1DF2
:101AA0001B680293CDE9004503680A680A4930467D
:101AB00005F0CEFEC7F87C01D7F87C319AB207F169
:101AC00014016423054804F08BFB00BF07F5C277BF
:101AD000BD46F0BDAFF30080FCB40008CC0300208D
:101AE0006666666666664A3FB0B584B000AFF86069
:101AF000B9607A60F868FEF715FD04460D46B868CF
:101B0000FEF710FD4FF033328D4BFEF775FD0246A8
:101B10000B4620462946FEF7FFFF0346002B03D065
:101B20007B68143B7B6018E0F868FEF7FBFC04461A
:101B30000D46B868FEF7F6FC73A3D3E90023FEF761
:101B40005BFD02460B4620462946FEF7E5FF0346AD
:101B5000002B02D07B680A3B7B60F868FEF7E2FC52
:101B600004460D46B868FEF7DDFC69A3D3E90023FF
:101B7000FEF742FD02460B4620462946FEF7CCFF03
:101B80000346002B03D07B68053B7B60AAE0FA6824
:101B9000BB689A4203DD7B68013B7B60A2E0F8688A
:101BA000FEF7C0FC04460D46B868FEF7BBFC4FF0DC
:101BB0000002644BFEF720FD02460B4620462946F4
:101BC000FEF78CFF0346002B03D07B6832337B602B
:101BD00088E0F868FEF7A6FC04460D46B868FEF7F4
:101BE000A1FC4DA3D3E90023FEF706FD02460B46F8
:101BF00020462946FEF772FF0346002B03D07B6880
:101C000005337B606EE0F868FEF78CFC04460D46F9
:101C1000B868FEF787FC42A3D3E90023FEF7ECFC8B
:101C200002460B4620462946FEF758FF0346002B86
:101C300003D07B680A337B6054E0F868FEF772FCDF
:101C400004460D46B868FEF76DFC37A3D3E90023C0
:101C5000FEF7D2FC02460B4620462946FEF73EFF21
:101C60000346002B03D07B6814337B603AE0F868AE
:101C7000FEF758FC04460D46B868FEF753FC2CA34B
:101C8000D3E90023FEF7B8FC02460B46204629465E
:101C9000FEF724FF0346002B03D07B681E337B60D6
:101CA00020E0F868FEF73EFC04460D46B868FEF7F3
:101CB00039FC21A3D3E90023FEF79EFC02460B4624
:101CC00020462946FEF70AFF0346002B03D07B6817
:101CD00028337B6006E0FA68BB689A4202DA7B68C8
:101CE00001337B607B68802B01DD80237B607B6818
:101CF000002B01DA00237B607B6818461037BD4655
:101D0000B0BD00BFAFF300809A9999999999F13FBE
:101D1000A4703D0AD7A3F03FB81E85EB51B8EE3F43
:101D2000CDCCCCCCCCCCEC3F9A9999999999E93F00
:101D3000666666666666E63F333333333333E33FC6
:101D40003333F33F0000E03F80B483B000AF7860EE
:101D500000BF0C37BD465DF8047B704780B483B08C
:101D600000AF78600E4B1B680E4A13600C4B5B682B
:101D70000C4A53600A4B9B680A4A9360084BDB6825
:101D8000084AD360064B1B69064A1361044B5B6922
:101D9000044A536100BF0C37BD465DF8047B7047B1
:101DA000B4030020F002002080B400AF72B600BF80
:101DB000FEE7000080B483B000AF0F4B1B6E0E4AED
:101DC00043F0010313660C4B1B6E03F001037B60B1
:101DD0007B68094B9B6D084A43F080539365064B23
:101DE0009B6D03F080533B603B6800BF0C37BD46E2
:101DF0005DF8047B704700BF0010024080B58AB0D8
:101E000000AF786007F1140300221A605A609A60EC
:101E1000DA601A617B681B68374A934267D1374B97
:101E2000DB6C364A43F40053D364344BDB6C03F46D
:101E300000533B613B69314BDB6C304A43F0040398
:101E4000D3642E4BDB6C03F00403FB60FB682B4B6D
:101E5000DB6C2A4A43F00103D364284BDB6C03F0AC
:101E60000103BB60BB680F237B610B23BB610023B5
:101E7000FB6107F114031946214801F0F5FF032324
:101E80007B610B23BB610023FB6107F1140319463F
:101E90004FF0904001F0E8FF1A4B1B4A1A60194BB3
:101EA00000225A60174B00229A60164B0022DA601B
:101EB000144B80221A61134B4FF400725A61114B7C
:101EC0004FF400629A610F4B2022DA610D4B002221
:101ED0001A620C4801F090FD0346002B01D0FFF779
:101EE00063FF7B68074ADA64064A7B68936200BF37
:101EF0002837BD4680BD00BF0000045000100240DE
:101F000000080048080300200800024080B58AB09D
:101F100000AF786007F1140300221A605A609A60DB
:101F2000DA601A617B681B681B4A934230D11B4BF5
:101F30001B6E1A4A43F480531366184B1B6E03F44E
:101F400080533B613B69154BDB6C144A43F0010342
:101F5000D364124BDB6C03F00103FB60FB68A0232E
:101F60007B610223BB610023FB6103233B620523EA
:101F70007B6207F1140319464FF0904001F074FFA3
:101F800000220021232001F000FD232001F019FD93
:101F900000BF2837BD4680BD003001400010024020
:101FA00080B58CB000AF786007F11C0300221A6086
:101FB0005A609A60DA601A617B681B682E4A934205
:101FC00028D12E4B1B6E2D4A43F4804313662B4BB6
:101FD0001B6E03F48043BB61BB69284BDB6C274A53
:101FE00043F00203D364254BDB6C03F002037B61F7
:101FF0007B69C023FB6102233B6200237B620323D6
:10200000BB620723FB6207F11C0319461C4801F061
:102010002BFF2DE07B681B681A4A934228D1174B8F
:102020009B6D164A43F400339365144B9B6D03F488
:1020300000333B613B69114BDB6C104A43F00103F9
:10204000D3640E4BDB6C03F00103FB60FB680C23D5
:10205000FB6102233B6200237B620323BB620723F5
:10206000FB6207F11C0319464FF0904001F0FCFEA3
:1020700000BF3037BD4680BD00380140001002402F
:10208000000400480044004080B400AF00BFBD46DB
:102090005DF8047B704780B400AFFEE780B400AF0A
:1020A000FEE780B400AFFEE780B400AFFEE780B487
:1020B00000AF00BFBD465DF8047B704780B400AF41
:1020C00000BFBD465DF8047B704780B400AF00BF21
:1020D000BD465DF8047B704780B500AF00F090F915
:1020E00000BF80BD80B500AF024801F0DEFD00BF3B
:1020F00080BD00BF0803002080B500AF024803F098
:1021000093FD00BF80BD00BF5003002080B400AF2E
:1021100001231846BD465DF8047B704780B582B048
:1021200000AF7860396004F0E1FC034616221A60C3
:102130004FF0FF3318460837BD4680BD80B582B0EA
:1021400000AF78604FF0FF317868FFF7E7FFFEE7F8
:1021500080B586B000AFF860B9607A6000237B611B
:102160000AE0AFF300800146BB685A1CBA60CAB2ED
:102170001A707B6901337B617A697B689A42F0DB74
:102180007B6818461837BD4680BD80B586B000AF65
:10219000F860B9607A6000237B6109E0BB685A1C73
:1021A000BA601B781846AFF300807B6901337B610E
:1021B0007A697B689A42F1DB7B6818461837BD461E
:1021C00080BD80B483B000AF78604FF0FF33184615
:1021D0000C37BD465DF8047B704780B483B000AF18
:1021E000786039603B684FF400525A60002318460B
:1021F0000C37BD465DF8047B704780B483B000AFF8
:102200007860012318460C37BD465DF8047B7047A3
:1022100080B485B000AFF860B9607A6000231846DA
:102220001437BD465DF8047B7047000080B586B06A
:1022300000AF7860144A154BD31A7B617B693B6110
:10224000134B1B68002B02D1114B124A1A60104B22
:102250001A687B6813443A699A4207D204F046FC34
:1022600003460C221A604FF0FF3309E0084B1B684D
:10227000FB60074B1A687B681344054A1360FB68D0
:1022800018461837BD4680BD0080012000040000BC
:10229000FC0100206804002080B400AF174BD3F885
:1022A0008830164A43F47003C2F88830144B1B6818
:1022B000134A43F001031360114B00229A60104B44
:1022C0001B680F4A23F0A85323F4102313600C4B10
:1022D0004FF48052DA600A4B1B68094A23F48023CA
:1022E0001360074B00229A61044B4FF000629A6022
:1022F00000BFBD465DF8047B704700BF00ED00E005
:1023000000100240DFF834D0FFF7C6FF002103E0E1
:102310000B4B5B58435004310A480B4B42189A420E
:10232000F6D30A4A02E0002342F8043B084B9A42E3
:10233000F9D304F0E1FBFEF759FEFEE7008001202F
:1023400014BB000800000020E0010020E001002094
:1023500064040020FEE780B582B000AF0023FB716B
:10236000032001F007FB002000F00EF80346002BCD
:1023700002D00123FB7101E0FFF71CFDFB79184639
:102380000837BD4680BD000080B584B000AF7860DE
:102390000023FB73174B1B78002B23D0164B1A68B6
:1023A000144B1B7819464FF47A73B3FBF1F3B2FB6D
:1023B000F3F3184601F013FB0346002B0FD17B68A3
:1023C0000F2B09D8002279684FF0FF3001F0DDFAB9
:1023D0000A4A7B68136007E00123FB7304E00123D2
:1023E000FB7301E00123FB73FB7B18461037BD46EE
:1023F00080BD00BF08000020000000200400002075
:1024000080B400AF064B1B781A46064B1B6813447A
:10241000044A136000BFBD465DF8047B704700BFEF
:10242000080000205004002080B400AF034B1B685C
:102430001846BD465DF8047B704700BF500400207D
:1024400080B584B000AF7860FFF7EEFFB8607B68BE
:10245000FB60FB68B3F1FF3F05D00A4B1B781A46BF
:10246000FB681344FB6000BFFFF7DEFF0246BB685A
:10247000D31AFA689A42F7D800BF00BF1037BD469A
:1024800080BD00BF0800002080B483B000AF78603A
:1024900039607B689B6823F47C123B681A437B6835
:1024A0009A6000BF0C37BD465DF8047B704780B46E
:1024B00083B000AF786039607B689B6823F0E0727E
:1024C0003B681A437B689A6000BF0C37BD465DF8D5
:1024D000047B704780B483B000AF78607B689B68F2
:1024E00003F0E07318460C37BD465DF8047B704777
:1024F00080B487B000AFF860B9607A603B60FB6879
:1025000060331A46BB689B0013447B617B691A6881
:10251000084B13407A6802F0F8413A680A431343C3
:1025200043F000427B691A6000BF1C37BD465DF86E
:10253000047B704700F0FF0380B485B000AF786083
:1025400039607B6860331A463B689B001344FB602C
:10255000FB681B6803F0F84318461437BD465DF866
:10256000047B704780B487B000AFF860B9607A60D0
:10257000FB6860331A46BB689B0013447B617B6930
:102580001B6823F000427B681A437B691A6000BF16
:102590001C37BD465DF8047B704780B483B000AF44
:1025A00078607B68DB6803F44063002B01D1012372
:1025B00000E0002318460C37BD465DF8047B7047E9
:1025C00080B487B000AFF860B9607A60FB683033E0
:1025D0001A46BB681B0A9B0003F00C0313447B6183
:1025E0007B691A68BB6803F01F031F2101FA03F31C
:1025F000DB431A407B689B0E03F01F01BB6803F0AE
:102600001F0301FA03F31A437B691A6000BF1C37EA
:10261000BD465DF8047B704780B487B000AFF860BA
:10262000B9607A60FB6814331A46BB685B0E9B0086
:1026300003F0040313447B617B691A68BB681B0DBC
:1026400003F01F03072101FA03F3DB431A40BB68C1
:102650001B0D03F01F03796801FA03F31A437B692A
:102660001A6000BF1C37BD465DF8047B7047000050
:1026700080B485B000AFF860B9607A60FB68D3F8C9
:10268000B020BB68C3F31203DB431A407B6803F03E
:1026900018030849D940BB680B40C3F312031A431F
:1026A000FB68C3F8B02000BF1437BD465DF8047B5B
:1026B000704700BFFFFF070080B483B000AF7860B1
:1026C0007B689B6803F01F0318460C37BD465DF816
:1026D000047B704780B483B000AF78607B689B68F0
:1026E00023F0204323F03F037A68936000BF0C3748
:1026F000BD465DF8047B704780B483B000AF78605E
:102700007B689B6803F00053B3F1005F01D10123A4
:1027100000E0002318460C37BD465DF8047B704787
:1027200080B483B000AF78607B689B6823F010436F
:1027300023F03F0343F080527B689A6000BF0C3760
:10274000BD465DF8047B704780B483B000AF78600D
:102750007B689B6803F08053B3F1805F01D1012354
:1027600000E0002318460C37BD465DF8047B704737
:1027700080B483B000AF78607B689B6823F000432F
:1027800023F03F0343F001027B689A6000BF0C37DF
:10279000BD465DF8047B704780B483B000AF7860BD
:1027A0007B689B6803F00103012B01D1012300E04A
:1027B000002318460C37BD465DF8047B704780B493
:1027C00083B000AF78607B689B6823F0004323F000
:1027D0003F0343F004027B689A6000BF0C37BD469C
:1027E0005DF8047B704780B483B000AF78607B688D
:1027F0009B6803F00403042B01D1012300E00023B4
:1028000018460C37BD465DF8047B704780B483B032
:1028100000AF78607B689B6803F00803082B01D148
:10282000012300E0002318460C37BD465DF8047B09
:102830007047000090B589B000AF78600023FB7747
:102840000023BB607B68002B01D1012336E17B684C
:102850001B69002B7B685B6D002B09D17868FFF743
:10286000CDFA7B6800229A657B68002283F85020AD
:102870007B681B681846FFF73FFF0346002B04D018
:102880007B681B681846FFF725FF7B681B681846A6
:10289000FFF75AFF0346002B15D17B681B681846CB
:1028A000FFF73EFF874B1B689B09874AA2FB032368
:1028B0009B0901335B00BB6002E0BB68013BBB606E
:1028C000BB68002BF9D17B681B681846FFF73CFFFB
:1028D0000346002B0DD17B685B6D43F010027B68D3
:1028E0005A657B689B6D43F001027B689A65012302
:1028F000FB777B681B681846FFF775FF78617B687C
:102900005B6D03F01003002B40F0CF807B69002B40
:1029100040F0CB807B685B6D23F4817343F002024F
:102920007B685A657B681B681846FFF735FF0346CE
:10293000002B15D16548FFF72FFF04466448FFF7C9
:102940002BFF03461C436348FFF726FF0346234340
:10295000002B05D17B685B6819465F48FFF794FD43
:102960007B685B7E5A037B685B6B1A437B68DB6822
:102970001A437B689B681A437B6893F820301B04DA
:102980001343BB617B6893F82030012B06D17B6831
:102990005B6A013B5B04BA691343BB617B689B6A5A
:1029A000002B09D07B689B6A03F470727B68DB6A3A
:1029B0001343BA691343BB617B681B68DA68474BF2
:1029C00013407A681268B9690B43D3607B681B684F
:1029D0001846FFF708FF38617B681B681846FFF749
:1029E00015FFF8603B69002B3DD1FB68002B3AD105
:1029F0007B681B7E9A037B6893F830305B0013433F
:102A0000BB617B681B68DB6823F4804323F002030F
:102A10007A681268B9690B43D3607B6893F83830E1
:102A2000012B18D17B681B681B6923F4FF6323F01B
:102A300004037A68D16B7A68126C11437A68526C1D
:102A400011437A68926C0A431A437B681B6842F010
:102A500001021A6107E07B681B681A697B681B68C2
:102A600022F001021A617B681B69012B0CD17B6883
:102A70001B681B6B23F00F017B68DB695A1E7B68A8
:102A80001B680A431A6307E07B681B681A6B7B6844
:102A90001B6822F00F021A637B685B6D23F003034F
:102AA00043F001027B685A6507E07B685B6D43F089
:102AB00010027B685A650123FB77FB7F1846243799
:102AC000BD4690BD00000020632D3E05000004506F
:102AD00000010450000204500003045007C0F0FF3E
:102AE00080B586B000AFF860B9607A605048FFF7F3
:102AF000E3FD3861FB681B681846FFF774FE034668
:102B0000002B40F08E80FB6893F85030012B01D1F0
:102B1000022389E0FB68012283F850203B69002BE7
:102B200005D03B69052B02D03B69092B72D1F868AF
:102B300000F084FC0346FB75FB7D002B65D1FB6830
:102B40005B6D23F4706323F0010343F48072FB6830
:102B50005A65FB681B68374A934202D0FB681B68C2
:102B600000E0354BFA681268934202D03B69002BB3
:102B700005D1FB685B6D23F48012FB685A65FB6826
:102B80005B6D03F48053002B06D0FB689B6D23F034
:102B90000602FB689A6502E0FB6800229A65FB6802
:102BA000DB6C264ADA62FB68DB6C254A1A63FB6839
:102BB000DB6C244A5A63FB681B681C221A60FB68A2
:102BC000002283F85020FB681B685A68FB681B686A
:102BD00042F010025A60FB681B68DA68FB681B68E9
:102BE00042F00102DA60FB68D86CFB681B68403376
:102BF0001946BA687B6800F0B7FF0346FB75FB68AF
:102C00001B681846FFF7DBFD0DE0FB68002283F828
:102C1000502008E00123FB75FB68002283F8502058
:102C200001E00223FB75FB7D18461837BD4680BDC9
:102C30000003045000010450000004500135000856
:102C4000D9350008F535000880B483B000AF78604E
:102C500000BF0C37BD465DF8047B704780B5B6B049
:102C600000AF78603960002387F8D7300023FB601D
:102C70007B6893F85030012B01D10223C7E37B68B6
:102C8000012283F850207B681B681846FFF7ABFDD4
:102C90000346002B40F0A8833B685B68052B24D8D3
:102CA0003B685B68023B032B1BD801A252F823F060
:102CB000C12C0008C92C0008D12C0008D92C000810
:102CC0003B680C225A6011E03B6812225A600DE00A
:102CD0003B6818225A6009E03B684FF480725A60E2
:102CE00004E03B6806225A6000E000BF7B68186879
:102CF0003B6859683B681B681A46FFF761FC7B68B4
:102D00001B681846FFF76FFDC7F8D0007B681B688B
:102D10001846FFF77BFDC7F8CC00D7F8D030002B62
:102D200040F0A681D7F8CC30002B40F0A1817B6821
:102D300018683B6819683B689B681A46FFF76CFC8B
:102D40003B685A697B681B68DB68DB0803F0030398
:102D50005B0002FA03F3C7F8C8303B681B69042B19
:102D60000AD07B6818683B6819693B681A68D7F80D
:102D7000C830FFF7BDFB7BE17B681B68002118466C
:102D8000FFF7DAFB0346C3F31203002B0AD17B687B
:102D90001B6800211846FFF7CFFB03469B0E03F08C
:102DA0001F021EE07B681B6800211846FFF7C4FB6A
:102DB0000346C7F8BC30D7F8BC3093FAA3F3C7F882
:102DC000B830D7F8B830C7F8C030D7F8C030002BCB
:102DD00001D1202304E0D7F8C030B3FA83F3DBB28B
:102DE0001A463B681B68C3F31203002B05D13B68EE
:102DF0001B689B0E03F01F0318E03B681B68C7F8B5
:102E0000B030D7F8B03093FAA3F3C7F8AC30D7F8A6
:102E1000AC30C7F8B430D7F8B430002B01D1202340
:102E200004E0D7F8B430B3FA83F3DBB29A4206D1A8
:102E30007B681B68002200211846FFF793FB7B6824
:102E40001B6801211846FFF777FB0346C3F3120303
:102E5000002B0AD17B681B6801211846FFF76CFB29
:102E600003469B0E03F01F021EE07B681B680121D6
:102E70001846FFF761FB0346C7F8A430D7F8A43023
:102E800093FAA3F3C7F8A030D7F8A030C7F8A8305A
:102E9000D7F8A830002B01D1202304E0D7F8A830C0
:102EA000B3FA83F3DBB21A463B681B68C3F3120321
:102EB000002B05D13B681B689B0E03F01F0318E035
:102EC0003B681B68C7F89830D7F8983093FAA3F39B
:102ED000C7F89430D7F89430C7F89C30D7F89C30B6
:102EE000002B01D1202304E0D7F89C30B3FA83F300
:102EF000DBB29A4206D17B681B680022012118468A
:102F0000FFF730FB7B681B6802211846FFF714FBB4
:102F10000346C3F31203002B0AD17B681B6802210E
:102F20001846FFF709FB03469B0E03F01F021EE045
:102F30007B681B6802211846FFF7FEFA0346C7F8B4
:102F40008C30D7F88C3093FAA3F3C7F88830D7F8D1
:102F50008830C7F89030D7F89030002B01D120236B
:102F600004E0D7F89030B3FA83F3DBB21A463B683B
:102F70001B68C3F31203002B05D13B681B689B0E33
:102F800003F01F0316E03B681B68C7F88030D7F8D2
:102F9000803093FAA3F3FB67FB6FC7F88430D7F850
:102FA0008430002B01D1202304E0D7F88430B3FA19
:102FB00083F3DBB29A4206D17B681B6800220221B0
:102FC0001846FFF7CFFA7B681B6803211846FFF706
:102FD000B3FA0346C3F31203002B0AD17B681B68C4
:102FE00003211846FFF7A8FA03469B0E03F01F02C1
:102FF00017E07B681B6803211846FFF79DFA03461C
:103000007B677B6F93FAA3F33B673B6FBB67BB6F39
:10301000002B01D1202303E0BB6FB3FA83F3DBB2B3
:103020001A463B681B68C3F31203002B05D13B68AB
:103030001B689B0E03F01F0311E03B681B68BB6617
:10304000BB6E93FAA3F37B667B6EFB66FB6E002B75
:1030500001D1202303E0FB6EB3FA83F3DBB29A4283
:1030600006D17B681B68002203211846FFF77AFA15
:103070007B681B681846FFF78FFB0346002B40F068
:103080003F817B6818683B6819683B68DB681A46B3
:10309000FFF7EEFA3B68DB688E4A934240F03081DE
:1030A0007B6818683B681B68C3F31203002B0BD1C5
:1030B0003B681B689B0E013303F01F03092B94BF71
:1030C00001230023DBB219E03B681B68FB65FB6D45
:1030D00093FAA3F3BB65BB6D3B663B6E002B01D13E
:1030E000202303E03B6EB3FA83F3DBB2013303F03A
:1030F0001F03092B94BF01230023DBB2002B79D0DF
:103100003B681B68C3F31203002B07D13B681B68A5
:103110009B0E01339B0603F0F84215E03B681B68E9
:103120003B653B6D93FAA3F3FB64FB6C7B657B6DA6
:10313000002B01D1202303E07B6DB3FA83F3DBB2D4
:1031400001339B0603F0F8423B681B68C3F312038C
:10315000002B09D13B681B689B0E013303F01F0352
:10316000012101FA03F317E03B681B687B647B6C69
:1031700093FAA3F33B643B6CBB64BB6C002B01D1A3
:10318000202303E0BB6CB3FA83F3DBB2013303F01B
:103190001F03012101FA03F342EA03013B681B68A4
:1031A000C3F31203002B0AD13B681B689B0E01334B
:1031B00003F01F0213465B0013441B0518E03B6835
:1031C0001B68BB63BB6B93FAA3F37B637B6BFB63F3
:1031D000FB6B002B01D1202303E0FB6BB3FA83F3DD
:1031E000DBB2013303F01F0213465B0013441B05DF
:1031F0000B4380E03B681B68C3F31203002B07D12D
:103200003B681B689B0E01339B0603F0F84215E0F8
:103210003B681B68FB62FB6A93FAA3F3BB62BB6A61
:103220003B633B6B002B01D1202303E03B6BB3FAE4
:1032300083F3DBB201339B0603F0F8423B681B6863
:10324000C3F31203002B09D13B681B689B0E0133AB
:1032500003F01F03012101FA03F317E03B681B6829
:103260003B623B6A93FAA3F3FB61FB697B627B6A77
:10327000002B01D1202303E07B6AB3FA83F3DBB296
:10328000013303F01F03012101FA03F342EA0301B2
:103290003B681B68C3F31203002B0DD13B681B680E
:1032A0009B0E013303F01F0213465B0013441E3BC9
:1032B0001B0543F000731DE03B681B687B617B6965
:1032C00093FAA3F33B613B69BB61BB69002B03D15C
:1032D000202305E000007F40BB69B3FA83F3DBB233
:1032E000013303F01F0213465B0013441E3B1B0512
:1032F00043F000730B433A6892681946FFF78CF964
:103300003B681A68444B1340002B7AD04348FFF7C0
:10331000E1F8C7F8C4003B681B68414A93422CD1CE
:10332000D7F8C43003F40003002B26D17B681B6858
:103330003C4A934204D07B681B683B4A93425DD170
:10334000D7F8C43043F4000319463448FFF7AFF808
:10335000364B1B689B09364AA2FB03239B095A1C68
:1033600013465B0013449B00FB6002E0FB68013BDB
:10337000FB60FB68002BF9D140E03B681B682D4ADD
:10338000934218D1D7F8C43003F08073002B12D1C8
:103390007B681B68234A934204D07B681B68224ADF
:1033A00093422DD1D7F8C43043F0807319461B489F
:1033B000FFF77DF824E03B681B681F4A934220D149
:1033C000D7F8C43003F48003002B1AD17B681B6844
:1033D000144A934215D1D7F8C43043F480031946F8
:1033E0000E48FFF764F80CE07B685B6D43F0200249
:1033F0007B685A65012387F8D73002E000BF00E000
:1034000000BF7B68002283F8502097F8D730184619
:10341000D837BD4680BD00BF0000088000030450BF
:10342000000052C7000004500002045000000020B9
:10343000632D3E05000084CB0100008080B584B080
:1034400000AF78607B681B681846FFF7A5F9034654
:10345000002B4DD17B681B689A68284B1340002BCA
:103460000DD07B685B6D43F010027B685A657B680A
:103470009B6D43F001027B689A65012339E07B680C
:103480001B681846FFF774F9FEF7CEFFF86028E0D6
:103490007B681B681846FFF77FF90346002B04D1B1
:1034A0007B681B681846FFF763F9FEF7BDFF02460D
:1034B000FB68D31A022B14D97B681B681B6803F0C6
:1034C0000103012B0DD07B685B6D43F010027B681C
:1034D0005A657B689B6D43F001027B689A65012306
:1034E00007E07B681B681B6803F00103012BCFD149
:1034F000002318461037BD4680BD00BF3F00008046
:1035000080B584B000AF78607B689B6AFB60FB6825
:103510005B6D03F05003002B4BD1FB685B6D43F4F4
:103520000072FB685A65FB681B681B6803F00803A0
:10353000002B21D0FB681B681846FFF72EF80346C6
:10354000002B32D0FB681B68DB6803F40053002BB0
:103550002BD1FB685B6D23F48072FB685A65FB68B6
:103560005B6D03F48053002B1FD1FB685B6D43F050
:103570000102FB685A6518E0FB681B68DB6803F012
:103580000203002B11D1FB685B6D23F48072FB6892
:103590005A65FB685B6D03F48053002B05D1FB6813
:1035A0005B6D43F00102FB685A65F868FEF7D6FBD5
:1035B0000EE0FB685B6D03F01003002B03D0F8688E
:1035C000FFF742FB04E0FB68DB6C5B6B78689847B5
:1035D00000BF1037BD4680BD80B584B000AF7860B5
:1035E0007B689B6AFB60F868FEF7AEFB00BF103794
:1035F000BD4680BD80B584B000AF78607B689B6AB3
:10360000FB60FB685B6D43F04002FB685A65FB683A
:103610009B6D43F00402FB689A65F868FFF714FBA2
:1036200000BF1037BD4680BD80B483B000AF786066
:103630007B689B6803F00103012B01D1012300E0AB
:10364000002318460C37BD465DF8047B704780B4F4
:1036500083B000AF78607B689B6803F00403042BA1
:1036600001D1012300E0002318460C37BD465DF868
:10367000047B704790B59FB000AF7860396000233D
:1036800087F877307B6893F85030012B01D1022303
:1036900093E07B68012283F850200023FB65002320
:1036A0003B667B681B68474A934202D1464BBB602E
:1036B00001E00023BB60BB68002B0BD17B685B6D16
:1036C00043F020027B685A657B68002283F8502013
:1036D000012372E0BB681846FFF7B9FF38677B68C3
:1036E0001B681846FFF7B3FF0346002B54D13B6F0E
:1036F000002B51D1354BFB663B681B68002B2CD04F
:10370000FB6E9B6823F460423B6859687B6893F8C2
:1037100030305B030B431A43FB6E9A602948FFF776
:1037200083FF04462848FFF77FFF03461C432848D1
:10373000FFF77AFF03462343002B37D1FB6E9B68CC
:1037400023F4716323F00F033A6811683A689268B2
:103750000A431A43FB6E9A6028E0FB6E9B6823F4D1
:103760006042FB6E9A601748FFF75EFF04461648FA
:10377000FFF75AFF03461C431548FFF755FF034662
:103780002343002B12D1FB6E9B6823F4716323F05B
:103790000F03FA6E936009E07B685B6D43F02002D3
:1037A0007B685A65012387F8773000E000BF7B68AB
:1037B000002283F8502097F8773018467C37BD46B2
:1037C00090BD00BF000004500001045000030450ED
:1037D0000002045080B485B000AF78607B6803F0CD
:1037E0000703FB600C4BDB68BB60BA684FF6FF0356
:1037F0001340BB60FB681A02BB68134343F0BF630E
:1038000043F40033BB60044ABB68D36000BF143785
:10381000BD465DF8047B704700ED00E080B400AF6A
:10382000044BDB681B0A03F007031846BD465DF82E
:10383000047B704700ED00E080B483B000AF034626
:10384000FB7197F90730002B0BDBFB7903F01F02AC
:10385000074997F907305B09012000FA02F241F8A5
:10386000232000BF0C37BD465DF8047B704700BFC6
:1038700000E100E080B483B000AF03463960FB7123
:1038800097F90730002B0ADB3B68DAB20C4997F94D
:1038900007301201D2B20B4483F800230AE03B68E0
:1038A000DAB20849FB7903F00F03043B1201D2B2EC
:1038B0000B441A7600BF0C37BD465DF8047B704799
:1038C00000E100E000ED00E080B489B000AFF860F6
:1038D000B9607A60FB6803F00703FB61FB69C3F121
:1038E0000703042B28BF0423BB61FB690433062BA9
:1038F00002D9FB69033B00E000237B614FF0FF32FC
:10390000BB6902FA03F3DA43BB681A407B699A4049
:103910004FF0FF317B6901FA03F3D9437B680B4019
:10392000134318462437BD465DF8047B70470000FA
:1039300080B582B000AF78607B68013BB3F1807FD7
:1039400001D301230FE00A4A7B68013B53600F213A
:103950004FF0FF30FFF78EFF054B00229A60044BBB
:1039600007221A60002318460837BD4680BD00BFF5
:1039700010E000E080B582B000AF78607868FFF7B3
:1039800029FF00BF0837BD4680BD80B586B000AFB7
:103990000346B9607A60FB7300237B61FFF73EFF4B
:1039A00078617A68B9687869FFF78EFF024697F9FF
:1039B0000F3011461846FFF75DFF00BF1837BD46B0
:1039C00080BD80B582B000AF0346FB7197F9073028
:1039D0001846FFF731FF00BF0837BD4680BD80B5F0
:1039E00082B000AF78607868FFF7A2FF0346184600
:1039F0000837BD4680BD000080B485B000AF786058
:103A00007B68002B01D1012398E07B681B681A4674
:103A10004D4B9A420FD87B681B681A464B4B134498
:103A20004B4AA2FB03231B099A007B685A647B68FC
:103A3000484A1A640EE07B681B681A46464B1344DA
:103A4000434AA2FB03231B099A007B685A647B68E4
:103A5000424A1A647B68022283F825207B681B682F
:103A60001B68FB60FB6823F4FF4323F07003FB60DB
:103A70007B689A687B68DB681A437B681B691A431A
:103A80007B685B691A437B689B691A437B68DB69C7
:103A90001A437B681B6A1343FA681343FB607B6815
:103AA0001B68FA681A607B689B68B3F5804F39D051
:103AB0007B681B6C274A93421AD1294B1A687B6892
:103AC0005B6C03F01C030F2101FA03F3DB43244971
:103AD00013400B60224B1A687B6859687B685B6CEB
:103AE00003F01C0301FA03F31D4913430B6019E0B3
:103AF0001C4B1A687B685B6C03F01C030F2101FAF6
:103B000003F3DB43174913400B60164B1A687B68BD
:103B100059687B685B6C03F01C0301FA03F31149DD
:103B200013430B607B680022DA637B68012283F811
:103B300025207B68002283F82420002318461437B0
:103B4000BD465DF8047B704707040240F8FFFDBFE7
:103B5000CDCCCCCC00000240F8FBFDBF00040240FD
:103B6000A8000240A804024080B586B000AFF8600B
:103B7000B9607A603B600023FB75FB6893F82430E2
:103B8000012B01D102234BE0FB68012283F82420A2
:103B9000FB6893F82530DBB2012B3AD1FB68022297
:103BA00083F82520FB680022DA63FB681B681A682B
:103BB000FB681B6822F001021A603B687A68B968EA
:103BC000F86800F021F9FB681B6B002B08D0FB683C
:103BD0001B681A68FB681B6842F00E021A600FE04F
:103BE000FB681B681A68FB681B6822F004021A60F5
:103BF000FB681B681A68FB681B6842F00A021A60BF
:103C0000FB681B681A68FB681B6842F001021A60B7
:103C100005E0FB68002283F824200223FB75FB7D6E
:103C200018461837BD4680BD80B584B000AF7860B7
:103C30000023FB737B6893F82530DBB2022B05D0A1
:103C40007B680422DA630123FB7329E07B681B682D
:103C50001A687B681B6822F00E021A607B681B687A
:103C60001A687B681B6822F001021A607B685B6C33
:103C700003F01C027B681B6C012101FA02F25A60FE
:103C80007B68012283F825207B68002283F82420AA
:103C90007B689B6B002B03D07B689B6B7868984795
:103CA000FB7B18461037BD4680BD80B584B000AFA1
:103CB00078607B681B6C1B68FB607B681B681B68FB
:103CC000BB607B685B6C03F01C0304229A40FB68BA
:103CD0001340002B26D0BB6803F00403002B21D037
:103CE0007B681B681B6803F02003002B07D17B68EF
:103CF0001B681A687B681B6822F004021A607B68E4
:103D00005B6C03F01C027B681B6C042101FA02F25D
:103D10005A607B681B6B002B71D07B681B6B7868CB
:103D200098476CE07B685B6C03F01C0302229A40AE
:103D3000FB681340002B2ED0BB6803F00203002B5E
:103D400029D07B681B681B6803F02003002B0BD174
:103D50007B681B681A687B681B6822F00A021A607D
:103D60007B68012283F825207B685B6C03F01C02D2
:103D70007B681B6C022101FA02F25A607B68002208
:103D800083F824207B68DB6A002B38D07B68DB6AF1
:103D90007868984733E07B685B6C03F01C0308226B
:103DA0009A40FB681340002B2AD0BB6803F008033D
:103DB000002B25D07B681B681A687B681B6822F083
:103DC0000E021A607B685B6C03F01C027B681B6C44
:103DD000012101FA02F25A607B680122DA637B68F2
:103DE000012283F825207B68002283F824207B6849
:103DF0005B6B002B04D07B685B6B7868984700BFD7
:103E000000BF1037BD4680BD80B485B000AFF860FC
:103E1000B9607A603B60FB685B6C03F01C02FB6876
:103E20001B6C012101FA02F25A60FB681B683A68B8
:103E30005A60FB689B68102B08D1FB681B687A6886
:103E40009A60FB681B68BA68DA6007E0FB681B6869
:103E5000BA689A60FB681B687A68DA6000BF14373A
:103E6000BD465DF8047B704780B487B000AF7860D2
:103E7000396000237B617FE13B681A6801217B691F
:103E800001FA03F31340FB60FB68002B00F0718123
:103E90003B685B68012B0BD03B685B68022B07D04B
:103EA0003B685B68112B03D03B685B68122B30D1F9
:103EB0007B689B683B617B695B00032202FA03F32A
:103EC000DB433A6913403B613B68DA687B695B001E
:103ED00002FA03F33A6913433B617B683A699A60DB
:103EE0007B685B683B6101227B6902FA03F3DB4379
:103EF0003A6913403B613B685B681B0903F00102B0
:103F00007B6902FA03F33A6913433B617B683A69C0
:103F10005A603B685B6803F00303032B18D17B688E
:103F2000DB6A3B6101227B6902FA03F3DB433A69F6
:103F300013403B613B685B68DB0803F001027B696F
:103F400002FA03F33A6913433B617B683A69DA6228
:103F50007B68DB683B617B695B00032202FA03F349
:103F6000DB433A6913403B613B689A687B695B00BD
:103F700002FA03F33A6913433B617B683A69DA60FA
:103F80003B685B68022B03D03B685B68122B23D134
:103F90007B69DA087B68083253F822303B617B6921
:103FA00003F007039B000F2202FA03F3DB433A6995
:103FB00013403B613B681A697B6903F007039B0070
:103FC00002FA03F33A6913433B617B69DA087B68C1
:103FD0000832396943F822107B681B683B617B69B2
:103FE0005B00032202FA03F3DB433A6913403B61AF
:103FF0003B685B6803F003027B695B0002FA03F332
:104000003A6913433B617B683A691A603B685B68B5
:1040100003F08053002B00F0AC805F4B1B6E5E4AB8
:1040200043F0010313665C4B1B6E03F00103BB609E
:10403000BB685A4A7B699B08023352F823303B61C4
:104040007B6903F003039B000F2202FA03F3DB43B7
:104050003A6913403B617B68B3F1904F25D07B6890
:104060004F4A93421FD07B684E4A934219D07B68D7
:104070004D4A934213D07B684C4A93420DD07B68E3
:104080004B4A934207D07B684A4A934201D10623A8
:104090000CE007230AE0052308E0042306E00323DD
:1040A00004E0022302E0012300E000237A6902F029
:1040B0000302920093403A6913433B6137497B699D
:1040C0009B0802333A6941F823203B4B1B683B6154
:1040D000FB68DB433A6913403B613B685B6803F470
:1040E0008033002B03D03A69FB6813433B61324AAB
:1040F0003B691360304B5B683B61FB68DB433A69AB
:1041000013403B613B685B6803F40033002B03D032
:104110003A69FB6813433B61274A3B695360264B6E
:104120009B683B61FB68DB433A6913403B613B683A
:104130005B6803F48013002B03D03A69FB681343D8
:104140003B611D4A3B6993601B4BDB683B61FB682D
:10415000DB433A6913403B613B685B6803F400133F
:10416000002B03D03A69FB6813433B61124A3B6959
:10417000D3607B6901337B613B681A687B6922FAF3
:1041800003F3002B7FF478AE00BF00BF1C37BD46A1
:104190005DF8047B704700BF001002400000014042
:1041A0000004004800080048000C004800100048C7
:1041B00000140048001800480004014080B483B097
:1041C00000AF78600B467B8013467B707B78002BBA
:1041D00003D07A887B689A6102E07A887B689A6269
:1041E00000BF0C37BD465DF8047B704780B400AF5C
:1041F000044B1B6803F4C0631846BD465DF8047B9E
:10420000704700BF0070004080B485B000AF786098
:104210007B68B3F5007F30D1234B1B6803F4C06388
:10422000B3F5007F38D0204B1B6823F4C0631E4ACF
:1042300043F4007313601D4B1B68322202FB03F32F
:104240001B4AA2FB03239B0C0133FB6002E0FB68CB
:10425000013BFB60144B5B6903F48063B3F5806F33
:1042600002D1FB68002BF2D10F4B5B6903F4806332
:10427000B3F5806F10D103230FE00B4B1B6803F4E1
:10428000C063B3F5806F07D0074B1B6823F4C0638E
:10429000054A43F480631360002318461437BD4673
:1042A0005DF8047B704700BF0070004000000020F4
:1042B00083DE1B4380B588B000AF78607B68002B3D
:1042C00001D10123D4E3A14B9B6803F00C03BB6134
:1042D0009E4BDB6803F003037B617B681B6803F084
:1042E0001003002B00F0E480BB69002B07D0BB69F2
:1042F0000C2B40F08B807B69012B40F08780934B27
:104300001B6803F00203002B05D07B689B69002B20
:1043100001D10123ACE37B681A6A8C4B1B6803F064
:104320000803002B04D0894B1B6803F0F00305E061
:10433000864BD3F894301B0903F0F003934223D249
:104340007B681B6A184600F041FD0346002B01D034
:1043500001238DE37D4B1B687C4A43F00803136007
:104360007A4B1B6823F0F0027B681B6A7749134382
:104370000B60764B5B6823F47F427B68DB691B0232
:10438000724913434B6025E0704B1B686F4A43F042
:10439000080313606D4B1B6823F0F0027B681B6AF7
:1043A0006A4913430B60694B5B6823F47F427B6867
:1043B000DB691B02654913434B60BB69002B09D1C4
:1043C0007B681B6A184600F001FD0346002B01D0F4
:1043D00001234DE300F036FC02465C4B9B681B0951
:1043E00003F00F035A49CB5C03F01F0322FA03F3D7
:1043F000584A1360584B1B681846FDF7C5FF034623
:10440000FB73FB7B002B52D0FB7B31E37B689B690A
:10441000002B32D04D4B1B684C4A43F00103136014
:10442000FEF702F8386108E0FDF7FEFF02463B693F
:10443000D31A022B01D903231AE3444B1B6803F060
:104440000203002BF0D0414B1B68404A43F00803A5
:1044500013603E4B1B6823F0F0027B681B6A3B49EC
:1044600013430B60394B5B6823F47F427B68DB6945
:104470001B02364913434B601AE0344B1B68334A26
:1044800023F001031360FDF7CFFF386108E0FDF76B
:10449000CBFF02463B69D31A022B01D90323E7E283
:1044A0002A4B1B6803F00203002BF0D100E000BF91
:1044B0007B681B6803F00103002B74D0BB69082BD9
:1044C00005D0BB690C2B0ED17B69032B0BD11F4B85
:1044D0001B6803F40033002B64D07B685B68002BFF
:1044E00060D10123C4E27B685B68B3F5803F06D1ED
:1044F000164B1B68154A43F4803313601DE07B683C
:104500005B68B3F5A02F0CD1104B1B680F4A43F426
:10451000802313600D4B1B680C4A43F480331360F7
:104520000BE00A4B1B68094A23F480331360074BE6
:104530001B68064A23F4802313607B685B68002BAA
:104540001CD0FDF771FF386111E000BF0010024080
:1045500004B600080000002004000020FDF764FFFE
:1045600002463B69D31A642B01D9032380E2AF4B87
:104570001B6803F40033002BF0D014E0FDF754FF68
:10458000386108E0FDF750FF02463B69D31A642BFF
:1045900001D903236CE2A54B1B6803F40033002B05
:1045A000F0D100E000BF7B681B6803F00203002B22
:1045B00060D0BB69042B05D0BB690C2B19D17B697A
:1045C000022B16D1994B1B6803F48063002B05D096
:1045D0007B68DB68002B01D1012349E2934B5B68C8
:1045E00023F0F8527B681B691B06904913434B600C
:1045F00040E07B68DB68002B23D08C4B1B688B4A28
:1046000043F480731360FDF70FFF386108E0FDF796
:104610000BFF02463B69D31A022B01D9032327E281
:10462000824B1B6803F48063002BF0D07F4B5B68E8
:1046300023F0F8527B681B691B067C4913434B60CF
:1046400018E07A4B1B68794A23F480731360FDF7F6
:10465000EBFE386108E0FDF7E7FE02463B69D31A3E
:10466000022B01D9032303E2704B1B6803F4806320
:10467000002BF0D17B681B6803F00803002B3CD0B3
:104680007B685B69002B1CD0684BD3F89430674A79
:1046900043F00103C2F89430FDF7C6FE386108E02C
:1046A000FDF7C2FE02463B69D31A022B01D9032350
:1046B000DEE15E4BD3F8943003F00203002BEFD021
:1046C0001BE05A4BD3F89430584A23F00103C2F848
:1046D0009430FDF7A9FE386108E0FDF7A5FE02461B
:1046E0003B69D31A022B01D90323C1E14F4BD3F805
:1046F000943003F00203002BEFD17B681B6803F0BA
:104700000403002B00F0A6800023FB77474B9B6D32
:1047100003F08053002B0DD1444B9B6D434A43F073
:1047200080539365414B9B6D03F08053BB60BB6826
:104730000123FB773E4B1B6803F48073002B18D1D9
:104740003B4B1B683A4A43F480731360FDF76CFEE1
:10475000386108E0FDF768FE02463B69D31A022B78
:1047600001D9032384E1324B1B6803F48073002BCF
:10477000F0D07B689B68012B08D12C4BD3F890308C
:104780002A4A43F00103C2F8903024E07B689B681A
:10479000052B10D1254BD3F89030244A43F0040365
:1047A000C2F89030214BD3F89030204A43F00103F7
:1047B000C2F890300FE01D4BD3F890301B4A23F025
:1047C0000103C2F89030194BD3F89030174A23F008
:1047D0000403C2F890307B689B68002B16D0FDF76D
:1047E00023FE38610AE0FDF71FFE02463B69D31A3B
:1047F00041F28832934201D9032339E10B4BD3F8BC
:10480000903003F00203002BEDD01AE0FDF70CFE10
:1048100038610FE0FDF708FE02463B69D31A41F20A
:104820008832934206D9032322E100BF00100240E0
:1048300000700040904BD3F8903003F00203002B3F
:10484000E8D1FB7F012B05D18B4B9B6D8A4A23F06E
:10485000805393657B689B6A002B00F008817B681E
:104860009B6A022B40F0D080834BDB687B617B69C5
:1048700003F003027B68DB6A9A4230D17B6903F064
:1048800070027B681B6B013B1B019A4227D17B693D
:1048900003F4FE427B685B6B1B029A421FD17B696B
:1048A00003F400337A68926B072A14BF01220022B6
:1048B000D2B2934213D17B6903F4C0027B68DB6BF5
:1048C0005B08013B5B059A4209D17B6903F0C0623A
:1048D0007B681B6C5B08013B5B069A426ED0BB6930
:1048E0000C2B69D0644B1B6803F08063002B05D14F
:1048F000614B1B6803F08053002B01D00123B7E00C
:104900005D4B1B685C4A23F080731360FDF78CFDE0
:10491000386108E0FDF788FD02463B69D31A022B97
:1049200001D90323A4E0544B1B6803F00073002B50
:10493000F0D1514BDA68514B13407A68D16A7A68EA
:10494000126B013A120111437A68526B1202114341
:104950007A68D26B5208013A520511437A68126C98
:104960005208013A520611437A68926B12095204B6
:104970000A4341491343CB603F4B1B683E4A43F017
:10498000807313603C4BDB683B4A43F08073D36019
:10499000FDF74AFD386108E0FDF746FD02463B6938
:1049A000D31A022B01D9032362E0334B1B6803F0B7
:1049B0000073002BF0D05AE0012359E02E4B1B6806
:1049C00003F00073002B52D12B4B1B682A4A43F093
:1049D00080731360284BDB68274A43F08073D360F1
:1049E000FDF722FD386108E0FDF71EFD02463B6938
:1049F000D31A022B01D903233AE01F4B1B6803F0A3
:104A00000073002BF0D032E0BB690C2B2DD01A4B79
:104A10001B68194A23F080731360174B1B6803F05F
:104A20002053002B05D1144BDB68134A23F00303FA
:104A3000D360114BDB68104A23F0887323F4803372
:104A4000D360FDF7F1FC386108E0FDF7EDFC0246AC
:104A50003B69D31A022B01D9032309E0064B1B68DB
:104A600003F00073002BF0D101E0012300E00023EC
:104A700018462037BD4680BD001002408C809DF94D
:104A800080B584B000AF786039607B68002B01D1BD
:104A90000123C8E0664B1B6803F007033A689A429B
:104AA00010D9634B1B6823F0070261493B6813432D
:104AB0000B605F4B1B6803F007033A689A4201D012
:104AC0000123B0E07B681B6803F00103002B4CD08E
:104AD0007B685B68032B07D1564B1B6803F00073A0
:104AE000002B21D101239EE07B685B68022B07D15C
:104AF000504B1B6803F40033002B15D1012392E0C7
:104B00007B685B68002B07D14A4B1B6803F00203EC
:104B1000002B09D1012386E0464B1B6803F4806318
:104B2000002B01D101237EE0424B9B6823F003025E
:104B30007B685B683F4913438B60FDF775FCF86049
:104B40000AE0FDF771FC0246FB68D31A41F2883295
:104B5000934201D9032366E0364B9B6803F00C02B5
:104B60007B685B689B009A42EBD17B681B6803F013
:104B70000203002B08D02F4B9B6823F0F0027B68C8
:104B80009B682C4913438B60294B1B6803F0070378
:104B90003A689A4210D2264B1B6823F00702244938
:104BA0003B6813430B60224B1B6803F007033A6812
:104BB0009A4201D0012336E07B681B6803F00403AE
:104BC000002B08D01B4B9B6823F4E0627B68DB68FA
:104BD000184913438B607B681B6803F00803002BA4
:104BE00009D0144B9B6823F460527B681B69DB007F
:104BF000104913438B6000F025F802460D4B9B686B
:104C00001B0903F00F030C49CB5C03F01F0322FACE
:104C100003F30A4A13600A4B1B681846FDF7B4FBFE
:104C20000346FB72FB7A18461037BD4680BD00BFB5
:104C3000002002400010024004B6000800000020DE
:104C40000400002080B489B000AF0023FB61002382
:104C5000BB613E4B9B6803F00C033B613B4BDB6845
:104C600003F00303FB603B69002B05D03B690C2B71
:104C700021D1FB68012B1ED1344B1B6803F00803C4
:104C8000002B07D1314BD3F894301B0A03F00F03EC
:104C9000FB6105E02D4B1B681B0903F00F03FB6153
:104CA0002B4AFB6952F82330FB613B69002B0DD185
:104CB000FB69BB610AE03B69042B02D1254BBB6158
:104CC00004E03B69082B01D1234BBB613B690C2BF2
:104CD00034D11E4BDB6803F00303BB60BB68022BBF
:104CE00003D0BB68032B03D005E01A4B7B6105E0C2
:104CF000194B7B6102E0FB697B6100BF134BDB68F2
:104D00001B0903F0070301337B60104BDB681B0AB0
:104D100003F07F037A6902FB03F27B68B2FBF3F3D3
:104D20007B610A4BDB685B0E03F0030301335B001E
:104D30003B607A693B68B2FBF3F3BB61BB69184621
:104D40002437BD465DF8047B704700BF0010024069
:104D50001CB600080024F40000127A0080B400AFF2
:104D6000034B1B681846BD465DF8047B704700BFC7
:104D70000000002080B500AFFFF7F0FF0246064BB1
:104D80009B681B0A03F007030449CB5C03F01F0375
:104D900022FA03F3184680BD0010024014B6000842
:104DA00080B500AFFFF7DAFF0246064B9B68DB0ACF
:104DB00003F007030449CB5C03F01F0322FA03F35B
:104DC000184680BD0010024014B6000880B586B0B9
:104DD00000AF786000233B612A4B9B6D03F080534A
:104DE000002B03D0FFF702FA786114E0254B9B6D8E
:104DF000244A43F080539365224B9B6D03F080530C
:104E0000FB60FB68FFF7F2F978611E4B9B6D1D4A52
:104E100023F0805393657B69B3F5007F0BD17B68EA
:104E2000802B19D97B68A02B02D902233B6113E0A8
:104E300001233B6110E07B68802B02D903233B6197
:104E40000AE07B68802B02D102233B6104E07B688F
:104E5000702B01D101233B610B4B1B6823F0070230
:104E600009493B6913430B60074B1B6803F00703B9
:104E70003A699A4201D0012300E00023184618370E
:104E8000BD4680BD001002400020024080B586B0C3
:104E900000AF78600023FB740023BB747B681B6841
:104EA00003F40063002B41D07B685B6EB3F5400FC9
:104EB0002AD0B3F5400F24D8B3F5000F08D0B3F5CE
:104EC000000F1ED8002B0AD0B3F5800F10D018E0C9
:104ED000864BDB68854A43F48033D36015E07B68FA
:104EE00004330021184600F0BBFA0346FB740CE0C3
:104EF0007B6820330021184600F0A6FB0346FB74B4
:104F000003E00123FB7400E000BFFB7C002B0BD10E
:104F1000764BD3F8883023F440027B685B6E73498C
:104F20001343C1F8883001E0FB7CBB747B681B68CD
:104F300003F48053002B41D07B689B6EB3F1407F1C
:104F40002AD0B3F1407F24D8B3F1007F08D0B3F169
:104F5000007F1ED8002B0AD0B3F1807F10D018E05C
:104F6000624BDB68614A43F48033D36015E07B68B1
:104F700004330021184600F073FA0346FB740CE07A
:104F80007B6820330021184600F05EFB0346FB746B
:104F900003E00123FB7400E000BFFB7C002B0BD17E
:104FA000524BD3F8883023F040727B689B6E4F4998
:104FB0001343C1F8883001E0FB7CBB747B681B683D
:104FC00003F40033002B00F0A08000237B74474BD8
:104FD0009B6D03F08053002B01D1012300E00023DF
:104FE000002B0DD0414B9B6D404A43F0805393659D
:104FF0003E4B9B6D03F08053BB60BB6801237B7409
:105000003B4B1B683A4A43F480731360FDF70CFA7C
:10501000F86009E0FDF708FA0246FB68D31A022B94
:1050200002D90323FB7405E0314B1B6803F4807342
:10503000002BEFD0FB7C002B5CD12C4BD3F89030B5
:1050400003F440737B617B69002B1FD07B68D3F82E
:1050500084307A699A4219D0244BD3F8903023F4E3
:1050600040737B61214BD3F89030204A43F4803366
:10507000C2F890301D4BD3F890301C4A23F4803393
:10508000C2F89030194A7B69C2F890307B6903F00E
:105090000103002B16D0FDF7C7F9F8600BE0FDF710
:1050A000C3F90246FB68D31A41F28832934202D90F
:1050B0000323FB7406E00D4BD3F8903003F002039A
:1050C000002BECD0FB7C002B0CD1084BD3F890309C
:1050D00023F440727B68D3F8843004491343C1F849
:1050E000903009E0FB7CBB7406E000BF001002407A
:1050F00000700040FB7CBB747B7C012B05D19E4B78
:105100009B6D9D4A23F0805393657B681B6803F079
:105110000103002B0AD0984BD3F8883023F0030208
:105120007B689B6B94491343C1F888307B681B688C
:1051300003F00203002B0AD08F4BD3F8883023F002
:105140000C027B68DB6B8C491343C1F888307B68A9
:105150001B6803F00403002B0AD0874BD3F8883078
:1051600023F030027B681B6C83491343C1F88830FD
:105170007B681B6803F00803002B0AD07E4BD3F832
:10518000883023F0C0027B685B6C7B491343C1F815
:1051900088307B681B6803F01003002B0AD0764B25
:1051A000D3F8883023F440727B689B6C72491343B8
:1051B000C1F888307B681B6803F02003002B0AD0FD
:1051C0006D4BD3F8883023F440627B68DB6C6A490E
:1051D0001343C1F888307B681B6803F40073002B0D
:1051E0000AD0654BD3F8883023F440227B68DB6D0E
:1051F00061491343C1F888307B681B6803F48063FE
:10520000002B0AD05C4BD3F8883023F440127B6823
:105210001B6E59491343C1F888307B681B6803F043
:105220004003002B0AD0544BD3F8883023F440526B
:105230007B681B6D50491343C1F888307B681B683D
:1052400003F08003002B0AD04B4BD3F8883023F4B3
:1052500040427B685B6D48491343C1F888307B68E6
:105260001B6803F48073002B0AD0434BD3F88830BB
:1052700023F440327B689B6D3F491343C1F888306B
:105280007B681B6803F40053002B28D03A4BD3F8FB
:10529000883023F040627B68DB6E37491343C1F8E6
:1052A00088307B68DB6EB3F1006F06D1324BDB6870
:1052B000314A43F48013D36011E07B68DB6EB3F1B5
:1052C000806F0CD17B6804330121184600F0C8F8C8
:1052D0000346FB74FB7C002B01D0FB7CBB747B681A
:1052E0001B6803F40023002B28D0234BD3F888300D
:1052F00023F040627B681B6F1F491343C1F888305D
:105300007B681B6FB3F1006F06D11B4BDB681A4A39
:1053100043F48013D36011E07B681B6FB3F1806F9F
:105320000CD17B6804330121184600F099F803463C
:10533000FB74FB7C002B01D0FB7CBB747B681B687F
:1053400003F48023002B2BD00B4BD3F8883023F0B1
:1053500040627B685B6F08491343C1F888307B6803
:105360005B6FB3F1006F09D1034BDB68024A43F472
:105370008013D36014E000BF001002407B685B6FB5
:10538000B3F1806F0CD17B6804330121184600F023
:1053900067F80346FB74FB7C002B01D0FB7CBB74DD
:1053A0007B681B6803F48043002B2FD02B4BD3F872
:1053B000883023F040527B689B6F28491343C1F823
:1053C00088307B689B6FB3F1805F0DD17B680433BD
:1053D0000221184600F044F80346FB74FB7C002BC6
:1053E00014D0FB7CBB7411E07B689B6FB3F1005F52
:1053F0000CD17B6820330221184600F025F90346C2
:10540000FB74FB7C002B01D0FB7CBB747B681B68AE
:1054100003F40043002B0AD0104BD3F8883023F05C
:1054200080427B68DB6F0D491343C1F888307B688D
:105430001B6803F48033002B0BD0084BD3F8883063
:1054400023F000427B68D3F8803004491343C1F84D
:105450008830BB7C18461837BD4680BD001002401E
:1054600080B584B000AF786039600023FB73754B62
:10547000DB6803F00303002B18D0724BDB6803F0EA
:1054800003027B681B689A420DD17B681B68002B66
:1054900009D06C4BDB681B0903F007035A1C7B68BF
:1054A0005B689A4247D00123FB7344E07B681B682A
:1054B000032B18D0032B25D8012B02D0022B09D0A7
:1054C00020E0604B1B6803F00203002B1DD1012379
:1054D000FB731AE05B4B1B6803F48063002B16D14F
:1054E0000123FB7313E0574B1B6803F40033002BBD
:1054F0000FD1544B1B6803F48023002B09D10123E7
:10550000FB7306E00123FB7304E000BF02E000BF71
:1055100000E000BFFB7B002B0DD14A4BDB6823F082
:1055200073027B6819687B685B68013B1B010B4356
:1055300044491343CB60FB7B002B7DD1414B1B685F
:10554000404A23F080631360FCF76EFFB86009E007
:10555000FCF76AFF0246BB68D31A022B02D9032369
:10556000FB7305E0374B1B6803F00063002BEFD1A2
:10557000FB7B002B60D13B68002B11D1314B1B69A9
:1055800023F41F3323F440737A68926811027A6817
:10559000D268120952040A432A4913430B6127E0D7
:1055A0003B68012B12D1274B1B6923F4C00323F462
:1055B000FE437A68926811027A6812695208013AC9
:1055C00052050A431F4913430B6111E01D4B1B6930
:1055D00023F0C06323F4FE437A68926811027A686C
:1055E00052695208013A52060A43164913430B61A5
:1055F000144B1B68134A43F080631360FCF714FFDD
:10560000B86009E0FCF710FF0246BB68D31A022B12
:1056100002D90323FB7305E00A4B1B6803F0006308
:10562000002BEFD0FB7B002B06D1064B1A697B6861
:105630009B69044913430B61FB7B18461037BD4639
:1056400080BD00BF0010024080B584B000AF78601C
:1056500039600023FB736A4BDB6803F00303002B04
:1056600018D0674BDB6803F003027B681B689A4223
:105670000DD17B681B68002B09D0614BDB681B09CF
:1056800003F007035A1C7B685B689A4247D00123EA
:10569000FB7344E07B681B68032B18D0032B25D8D1
:1056A000012B02D0022B09D020E0554B1B6803F0E0
:1056B0000203002B1DD10123FB731AE0504B1B6822
:1056C00003F48063002B16D10123FB7313E04C4BD2
:1056D0001B6803F40033002B0FD1494B1B6803F404
:1056E0008023002B09D10123FB7306E00123FB7308
:1056F00004E000BF02E000BF00E000BFFB7B002B26
:105700000DD13F4BDB6823F073027B6819687B681F
:105710005B68013B1B010B4339491343CB60FB7BA7
:10572000002B67D1364B1B68354A23F0805313603A
:10573000FCF77AFEB86009E0FCF776FE0246BB682B
:10574000D31A022B02D90323FB7305E02C4B1B68F1
:1057500003F00053002BEFD1FB7B002B4AD13B68B9
:10576000002B11D1264B5B6923F41F3323F44073C4
:105770007A68926811027A68D268120952040A4360
:105780001F4913434B6111E01D4B5B6923F0C0635C
:1057900023F4FE437A68926811027A68126952080B
:1057A000013A52060A43164913434B61144B1B68D6
:1057B000134A43F080531360FCF736FEB86009E0EB
:1057C000FCF732FE0246BB68D31A022B02D9032330
:1057D000FB7305E00A4B1B6803F00053002BEFD06E
:1057E000FB7B002B06D1064B5A697B685B69044939
:1057F00013434B61FB7B18461037BD4680BD00BF8D
:105800000010024080B584B000AF78607B68002B48
:1058100001D1012395E07B685B6A002B08D17B688E
:105820005B68B3F5827F09D07B680022DA6105E00E
:105830007B6800221A617B6800225A617B68002223
:105840009A627B6893F85D30DBB2002B06D17B68EF
:10585000002283F85C207868FCF758FB7B68022202
:1058600083F85D207B681B681A687B681B6822F0E0
:1058700040021A607B68DB68B3F5E06F02D9002351
:10588000FB6002E04FF48053FB607B68DB68B3F59C
:10589000706F07D07B68DB68B3F5E06F02D07B6880
:1058A00000229A627B685B6803F482727B689B6863
:1058B00003F404431A437B681B6903F002031A4391
:1058C0007B685B6903F001031A437B689B6903F4FF
:1058D00000731A437B68DB6903F038031A437B6863
:1058E0001B6A03F0800342EA03017B689B6A03F4AE
:1058F00000527B681B680A431A607B689B691B0C1B
:1059000003F004027B685B6A03F010031A437B68B0
:105910005B6B03F008031A437B68DB6803F4706376
:1059200042EA0301FB6803F480527B681B680A4368
:105930005A607B6800221A667B68012283F85D202A
:10594000002318461037BD4680BD80B588B000AF33
:10595000F860B9603B601346FB800023FB77FB686F
:1059600093F85C30012B01D1022358E1FB6801223E
:1059700083F85C20FCF758FDB861FB88FB82FB686C
:1059800093F85D30DBB2012B02D00223FB773DE1BF
:10599000BB68002B02D0FB88002B02D10123FB77D0
:1059A00034E1FB68032283F85D20FB6800221A665D
:1059B000FB68BA689A63FB68FA889A87FB68FA887A
:1059C000DA87FB6800221A64FB680022A3F84420EF
:1059D000FB680022A3F84620FB6800221A65FB68DA
:1059E0000022DA64FB689B68B3F5004F0FD1FB68B7
:1059F0001B681A68FB681B6822F040021A60FB688B
:105A00001B681A68FB681B6842F480421A60FB68D6
:105A10001B681B6803F04003402B07D0FB681B6822
:105A20001A68FB681B6842F040021A60FB68DB687A
:105A3000B3F5E06F4BD9FB685B68002B02D0FB8AA3
:105A4000012B3ED1FB689B6B1A88FB681B68DA60F0
:105A5000FB689B6B9A1CFB689A63FB68DB8F9BB2AD
:105A6000013B9AB2FB68DA872BE0FB681B689B68F6
:105A700003F00203022B12D1FB689B6B1A88FB68B0
:105A80001B68DA60FB689B6B9A1CFB689A63FB6877
:105A9000DB8F9BB2013B9AB2FB68DA8711E0FCF71F
:105AA000C3FC0246BB69D31A3A689A4203D83B68E2
:105AB000B3F1FF3F02D13B68002B02D10323FB77F8
:105AC000A4E0FB68DB8F9BB2002BCED17CE0FB68AF
:105AD0005B68002B02D0FB8A012B70D1FB68DB8F47
