:020000040800F2
:10000000008001202D230008B1200008BF20000837
:10001000C5200008CB200008D12000080000000007
:10002000000000000000000000000000D7200008D1
:10003000E520000800000000F3200008012100086E
:100040007D2300087D2300087D2300087D23000810
:100050007D2300087D2300087D2300087D23000800
:100060007D2300087D2300087D2300080D21000862
:100070007D2300087D2300087D2300087D230008E0
:100080007D2300087D2300087D2300087D230008D0
:100090007D2300087D2300087D2300087D230008C0
:1000A0007D2300087D2300087D2300087D230008B0
:1000B0007D2300087D2300087D2300087D230008A0
:1000C0007D2300087D2300087D23000821210008EE
:1000D0007D2300087D2300087D2300087D23000880
:1000E0007D2300087D2300087D2300087D23000870
:1000F0007D2300087D2300087D2300087D23000860
:100100007D2300087D2300087D2300087D2300084F
:100110007D2300087D2300087D2300087D2300083F
:100120007D2300087D2300087D2300087D2300082F
:100130007D2300087D2300087D2300087D2300081F
:100140007D2300087D2300087D2300087D2300080F
:100150007D2300087D2300087D2300087D230008FF
:100160007D2300087D2300087D2300087D230008EF
:100170007D2300087D2300087D2300080000000087
:080180007D2300087D23000827
:1001900010B5054C237833B9044B13B10448AFF3C1
:1001A00000800123237010BDE0010020000000004A
:1001B000F0B3000808B5034B1BB103490348AFF384
:1001C000008008BD00000000E4010020F0B300083A
:1001D000034613F8012B002AFBD1181A0138704787
:1001E00001F0FF01102A2BDB10F0070F08D010F8E8
:1001F000013B013A8B422DD010F0070F42B3F6D1EC
:10020000F0B441EA012141EA014122F007047FF004
:1002100000070023F0E80256083C85EA010586EA5B
:10022000010685FA47F5A3FA87F586FA47F6A5FA97
:1002300087F68EB9EED1F0BC01F0FF0102F00702A3
:1002400032B110F8013B013A83EA010313B1F8D14E
:100250000020704701387047002D06BF354603382F
:10026000073815F0010F07D1013015F4807F02BF68
:10027000013015F4C03F0130F0BC0138704700BFB9
:1002800081F0004102E000BF83F0004330B54FEA47
:1002900041044FEA430594EA050F08BF90EA020FB4
:1002A0001FBF54EA000C55EA020C7FEA645C7FEA47
:1002B000655C00F0E2804FEA5454D4EB5555B8BF6A
:1002C0006D420CDD2C4480EA020281EA030382EADB
:1002D000000083EA010180EA020281EA0303362D6D
:1002E00088BF30BD11F0004F4FEA01314FF4801C40
:1002F0004CEA113102D0404261EB410113F0004F52
:100300004FEA03334CEA133302D0524263EB430308
:1003100094EA050F00F0A780A4F10104D5F1200EA6
:100320000DDB02FA0EFC22FA05F2801841F1000101
:1003300003FA0EF2801843FA05F359410EE0A5F1D5
:1003400020050EF1200E012A03FA0EFC28BF4CF006
:10035000020C43FA05F3C01851EBE37101F00045BC
:1003600007D54FF0000EDCF1000C7EEB00006EEBC9
:100370000101B1F5801F1BD3B1F5001F0CD3490853
:100380005FEA30004FEA3C0C04F101044FEA4452AA
:1003900012F5800F80F09A80BCF1004F08BF5FEA31
:1003A000500C50F1000041EB045141EA050130BD11
:1003B0005FEA4C0C404141EB0101013C28BFB1F523
:1003C000801FE9D291F0000F04BF01460020B1FA6E
:1003D00081F308BF2033A3F10B03B3F120020CDA41
:1003E0000C3208DD02F1140CC2F10C0201FA0CF01F
:1003F00021FA02F10CE002F11402D8BFC2F1200C84
:1004000001FA02F120FA0CFCDCBF41EA0C01904039
:10041000E41AA2BF01EB0451294330BD6FEA040482
:100420001F3C1CDA0C340EDC04F11404C4F120026D
:1004300020FA04F001FA02F340EA030021FA04F37F
:1004400045EA030130BDC4F10C04C4F1200220FAD6
:1004500002F001FA04F340EA0300294630BD21FA14
:1004600004F0294630BD94F0000F83F4801306BFDA
:1004700081F480110134013D4EE77FEA645C18BFCE
:100480007FEA655C29D094EA050F08BF90EA020F65
:1004900005D054EA000C04BF1946104630BD91EA5D
:1004A000030F1EBF0021002030BD5FEA545C05D160
:1004B0004000494128BF41F0004130BD14F580049F
:1004C0003CBF01F5801130BD01F0004545F0FE4113
:1004D00041F470014FF0000030BD7FEA645C1ABF48
:1004E000194610467FEA655C1CBF0B46024650EA7F
:1004F000013406BF52EA033591EA030F41F40021AB
:1005000030BD00BF90F0000F04BF0021704730B530
:100510004FF4806404F132044FF000054FF0000105
:1005200050E700BF90F0000F04BF0021704730B5C6
:100530004FF4806404F1320410F0004548BF40429B
:100540004FF000013EE700BF42004FEAE2014FEAF0
:1005500031014FEA02701FBF12F07F4393F07F4FCB
:1005600081F06051704732F07F4208BF704793F0CE
:100570007F4F04BF41F40021704730B54FF46074E1
:1005800001F0004521F000411CE700BF50EA0102E4
:1005900008BF704730B54FF000050AE050EA01028D
:1005A00008BF704730B511F0004502D5404261EBFD
:1005B00041014FF4806404F132045FEA915C3FF43E
:1005C000D8AE4FF003025FEADC0C18BF03325FEADB
:1005D000DC0C18BF033202EBDC02C2F1200300FA8C
:1005E00003FC20FA02F001FA03FE40EA0E0021FAB1
:1005F00002F11444BDE600BF70B54FF0FF0C4CF49F
:10060000E06C1CEA11541DBF1CEA135594EA0C0F50
:1006100095EA0C0F00F0DEF82C4481EA030621EA8B
:100620004C5123EA4C5350EA013518BF52EA0335C6
:1006300041F4801143F4801338D0A0FB02CE4FF078
:100640000005E1FB02E506F00042E0FB03E54FF0A8
:100650000006E1FB03569CF0000F18BF4EF0010EA0
:10066000A4F1FF04B6F5007F64F5407404D25FEA9C
:100670004E0E6D4146EB060642EAC62141EA55514F
:100680004FEAC52040EA5E504FEACE2EB4F1FD0C91
:1006900088BFBCF5E06F1ED8BEF1004F08BF5FEA0F
:1006A000500E50F1000041EB045170BD06F00046C1
:1006B00046EA010140EA020081EA0301B4EB5C046E
:1006C000C2BFD4EB0C0541EA045170BD41F4801166
:1006D0004FF0000E013C00F3AB8014F1360FDEBF8B
:1006E000002001F0004170BDC4F10004203C35DA67
:1006F0000C341BDC04F11404C4F1200500FA05F3EA
:1007000020FA04F001FA05F240EA020001F000428A
:1007100021F0004110EBD37021FA04F642EB060100
:100720005EEA430E08BF20EAD37070BDC4F10C042A
:10073000C4F1200500FA04F320FA05F001FA04F2EE
:1007400040EA020001F0004110EBD37041F10001DA
:100750005EEA430E08BF20EAD37070BDC4F12005E5
:1007600000FA05F24EEA020E20FA04F301FA05F24D
:1007700043EA020321FA04F001F0004121FA04F2F5
:1007800020EA020000EBD3705EEA430E08BF20EAC5
:10079000D37070BD94F0000F0FD101F000464000FF
:1007A00041EB010111F4801F08BF013CF7D041EA81
:1007B000060195F0000F18BF704703F00046520085
:1007C00043EB030313F4801F08BF013DF7D043EA56
:1007D0000603704794EA0C0F0CEA135518BF95EA0C
:1007E0000C0F0CD050EA410618BF52EA4306D1D193
:1007F00081EA030101F000414FF0000070BD50EAB2
:10080000410606BF1046194652EA430619D094EA3B
:100810000C0F02D150EA013613D195EA0C0F05D125
:1008200052EA03361CBF104619460AD181EA030179
:1008300001F0004141F0FE4141F470014FF0000031
:1008400070BD41F0FE4141F4780170BD70B54FF0CC
:10085000FF0C4CF4E06C1CEA11541DBF1CEA13554C
:1008600094EA0C0F95EA0C0F00F0A7F8A4EB05042E
:1008700081EA030E52EA03354FEA013100F0888025
:100880004FEA03334FF0805545EA131343EA1263EE
:100890004FEA022245EA111545EA10654FEA0026A3
:1008A0000EF000419D4208BF964244F1FD0404F55C
:1008B000407402D25B084FEA3202B61A65EB0305B8
:1008C0005B084FEA32024FF480104FF4002CB6EB75
:1008D000020E75EB030E22BFB61A754640EA0C00F5
:1008E0005B084FEA3202B6EB020E75EB030E22BF35
:1008F000B61A754640EA5C005B084FEA3202B6EB76
:10090000020E75EB030E22BFB61A754640EA9C0034
:100910005B084FEA3202B6EB020E75EB030E22BF04
:10092000B61A754640EADC0055EA060E18D04FEAC2
:10093000051545EA16754FEA06164FEAC30343EA62
:1009400052734FEAC2025FEA1C1CC0D111F4801F2F
:100950000BD141EA00014FF000004FF0004CB6E728
:1009600011F4801F04BF01430020B4F1FD0C88BFC7
:10097000BCF5E06F3FF6AFAEB5EB030C04BFB6EBD2
:10098000020C5FEA500C50F1000041EB045170BDC5
:100990000EF0004E4EEA113114EB5C04C2BFD4EBF2
:1009A0000C0541EA045170BD41F480114FF0000E76
:1009B000013C90E645EA060E8DE60CEA135594EAF2
:1009C0000C0F08BF95EA0C0F3FF43BAF94EA0C0FF5
:1009D0000AD150EA01347FF434AF95EA0C0F7FF46A
:1009E00025AF104619462CE795EA0C0F06D152EABE
:1009F00003353FF4FDAE1046194622E750EA4106A2
:100A000018BF52EA43067FF4C5AE50EA41047FF4B2
:100A10000DAF52EA43057FF4EBAE12E74FF0FF3C17
:100A200006E000BF4FF0010C02E000BF4FF0010CE8
:100A30004DF804CD4FEA410C7FEA6C5C4FEA430C61
:100A400018BF7FEA6C5C1BD001B050EA410C0CBFB0
:100A500052EA430C91EA030F02BF90EA020F002012
:100A6000704710F1000F91EA030F58BF994208BF79
:100A700090422CBFD8176FEAE37040F00100704736
:100A80004FEA410C7FEA6C5C02D150EA013C07D18D
:100A90004FEA430C7FEA6C5CD6D152EA033CD3D0D8
:100AA0005DF8040B704700BF8446104662468C46D2
:100AB0001946634600E000BF01B5FFF7B7FF002805
:100AC00048BF10F1000F01BD4DF808EDFFF7F4FF2E
:100AD0000CBF012000205DF808FB00BF4DF808EDB9
:100AE000FFF7EAFF34BF012000205DF808FB00BFDC
:100AF0004DF808EDFFF7E0FF94BF012000205DF8FE
:100B000008FB00BF4DF808EDFFF7CEFF94BF0120B2
:100B100000205DF808FB00BF4DF808EDFFF7C4FFAB
:100B200034BF012000205DF808FB00BF4FEA410CF4
:100B30007FEA6C5C02D150EA013C0AD14FEA430CD7
:100B40007FEA6C5C02D152EA033C02D14FF0000014
:100B500070474FF0010070474FEA410212F5001252
:100B600015D211D56FF47873B3EB625212D94FEAF4
:100B7000C12343F0004343EA505311F0004F23FADE
:100B800002F018BF404270474FF00000704750EA33
:100B9000013005D111F0004008BF6FF000407047F0
:100BA0004FF00000704700BF4A0011D212F500124A
:100BB00011D20DD56FF47873B3EB62520ED44FEAB5
:100BC000C12343F0004343EA505323FA02F0704735
:100BD0004FF00000704750EA013002D14FF0FF3073
:100BE00070474FF0000070474FEA4102B2F1E04316
:100BF00024BFB3F5001CDCF1FE5C0DD901F0004C04
:100C00004FEAC0024CEA5070B2F1004F40EB830053
:100C100008BF20F00100704711F0804F21D113F17F
:100C20003872BCBF01F00040704741F480114FEAB8
:100C30005252C2F11802C2F1200C10FA0CF320FA41
:100C400002F018BF40F001004FEAC1234FEAD3235E
:100C500003FA0CFC40EA0C0023FA02F34FEA4303C8
:100C6000CCE77FEA625307D150EA01331EBF4FF051
:100C7000FE4040F44000704701F0004040F0FE406C
:100C800040F40000704700BF53B94AB9002908BFBB
:100C900000281CBF4FF0FF314FF0FF3000F0A4B927
:100CA000ADF1080C6DE904CE00F03CF8DDF804E08D
:100CB000DDE9022304B0704738B500220023044662
:100CC0000D46FFF70BFF28B920462946BDE83840FE
:100CD00000F00AB8204605F1004100F005F8404256
:100CE00061EB410138BD00BFD0B50C4B0022064678
:100CF0000F46FFF781FCFFF757FF0446FFF702FCA2
:100D0000074B0022FFF778FC02460B463046394677
:100D1000FFF7BAFAFFF748FF2146D0BD0000F03DCB
:100D20000000F0412DE9F047089D04468C46002B59
:100D300040F083808A42174647D9B2FA82F242B124
:100D4000C2F1200024FA00F09140974040EA010CE3
:100D500094404FEA1748230CBCFBF8F61FFA87FEB5
:100D600008FB16C143EA014306FB0EF1994209D97B
:100D7000FB1806F1FF3080F01981994240F216818C
:100D8000023E3B445B1AA4B2B3FBF8F008FB1033FD
:100D900044EA034400FB0EFEA64509D93C1900F1C4
:100DA000FF3380F00581A64540F2028102383C44C1
:100DB00040EA0640A4EB0E0400261DB1D4400023F7
:100DC000C5E900433146BDE8F08702B9FFDEB2FA5B
:100DD00082F2002A50D1CB1B4FEA174E1FFA87F838
:100DE0000126B3FBFEFC210C0EFB1C3341EA034140
:100DF00008FB0CF38B4207D979180CF1FF3002D2B3
:100E00008B4200F2E9808446C91AA3B2B1FBFEF01E
:100E10000EFB101143EA014408FB00F8A04507D976
:100E20003C1900F1FF3302D2A04500F2D9801846E8
:100E3000A4EB080440EA0C40BFE78B4209D9002D1F
:100E400000F0B1800026C5E9000130463146BDE81A
:100E5000F087B3FA83F6002E4AD18B4202D3824246
:100E600000F2B880841A61EB030101208C46002D4A
:100E7000A8D0C5E9004CA5E7C2F1200320FA03F68B
:100E8000974001FA02F04FEA174ED9403043030C65
:100E9000B1FBFEF61FFA87F80EFB161143EA014379
:100EA00006FB08F1994204FA02F409D9FB1806F18D
:100EB000FF3C80F08D80994240F28A80023E3B44A4
:100EC0005B1A81B2B3FBFEF00EFB103341EA034123
:100ED00000FB08F38B4207D9791800F1FF3C73D26D
:100EE0008B4271D902383944CB1A40EA064678E77A
:100EF000C6F1200C03FA06F422FA0CF31C4320FA84
:100F00000CF701FA06F34FEA144E21FA0CF11F43D5
:100F10003B0CB1FBFEF91FFA84F80EFB191143EAF2
:100F2000014109FB08FA8A4502FA06F200FA06F3C3
:100F300008D9611809F1FF3048D28A4546D9A9F18C
:100F400002092144A1EB0A01BFB2B1FBFEF00EFB86
:100F5000101147EA014700FB08F8B84507D9E7191F
:100F600000F1FF312ED2B8452CD90238274440EA8F
:100F70000940A7EB0807A0FB02894F45C646494632
:100F80001AD317D05DB1B3EB0E0267EB010707FA76
:100F90000CFCF2404CEA0202F740C5E900270026AB
:100FA0003146BDE8F0872E4628460BE70646E9E6BF
:100FB0001846FDE64345E5D2B8EB020E69EB0401A5
:100FC0000138DFE70846D2E760468DE78146B9E79A
:100FD000664675E730464AE7ACF1020C394413E740
:100FE00002383C4424E700BF704700BF80B5ADF530
:100FF000567D04AF0023C7F8943207F526737B2291
:101000000021184605F0C8FD0023C7F8203301F081
:10101000B6F94FF48063C7F81C330023C7F8443394
:101020000BE007F52372D7F84433134400221A70FB
:10103000D7F844330133C7F84433D7F84433052B8A
:10104000EFDDD64A07F51C7307CA03C31A7007F20F
:10105000792300221A605A60C3F80720D04A07F5A6
:10106000177392E8030083E8030007F51973002261
:101070001A605A609A600023C7F840330123C7F80A
:101080003C330023C7F8183300F040FA00F050FC5E
:1010900000F030FC00F0FEFB00F08EFB00F0C2FA26
:1010A00000F0C8FB01224FF48071BE4803F0B2F893
:1010B00001228021BB4803F0ADF801224021B9484C
:1010C00003F0A8F80622B849B84801F01DFD0FE06A
:1010D00001220221B64803F09DF87D2001F0C4F9F9
:1010E00000220221B24803F095F87D2001F0BCF9FE
:1010F0000121AF4803F076F80346002BE8D1002326
:10110000C7F8383314E001220221A94803F082F81D
:101110007D2001F0A9F900220221A54803F07AF808
:101120007D2001F0A1F9D7F838330133C7F83833FF
:10113000D7F838330B2BE6DD01224FF480619C4851
:1011400003F068F80023C7F8343315E001220221C8
:10115000974803F05FF87D2001F086F90022022114
:10116000934803F057F840F26B3001F07DF9D7F85F
:1011700034330133C7F83433D7F83433B3F5967FBB
:10118000E4DB0023C7F830331EE001220221884847
:1011900003F040F801220421854803F03BF87D204C
:1011A00001F062F900220221814803F033F80022A5
:1011B00004217F4803F02EF87D2001F055F9D7F87F
:1011C00030330133C7F83033D7F83033132BDCDD3D
:1011D0000023C7F82C33C8E0764B1B68184697F8F5
:1011E0008C321A46D7F81C1300F092FC0346DBB28F
:1011F00087F88C326F4B5B68184697F88D321A4629
:10120000D7F81C1300F084FC0346DBB287F88D325C
:10121000684B9B68184697F88E321A46D7F81C130D
:1012200000F076FC0346DBB287F88E3297F88C32FA
:10123000C7F8883297F88D32C7F8843297F88E3223
:10124000C7F8143300224FF48071564802F0E2FFD1
:1012500007F522710A230122574804F0A2FB00BFC0
:10126000554804F017FE0346012BF9D101224FF433
:1012700080714C4802F0CEFFC82001F0F5F8002242
:101280008021484802F0C6FF07F521710A23012298
:10129000494804F086FB00BF474804F0FBFD0346C5
:1012A000012BF9D1012280213E4802F0B3FF414BCE
:1012B0001968404B5B6807F52570D7F84023029208
:1012C00007F51772019200930B46D7F83C233B4970
:1012D00006F0EAFAC7F82003D7F820339AB207F5E8
:1012E00025716423364804F0A7FFD7F84033013353
:1012F000C7F8403307F52573D7F82C233149184632
:1013000006F0D2FAC7F82003D7F820339AB207F5CF
:10131000257164232C4804F08FFF0023C7F828337D
:1013200016E0D7F82833581C07F52372D7F828336E
:1013300013441B7819461F4AD7F8283352F8233034
:101340001A4600F075FBD7F828330133C7F8283365
:10135000D7F82833012BE4DD40F2DC5001F084F8AB
:10136000D7F82C330133C7F82C33D7F82C33092B9B
:101370007FF732AF3A461549134603C91860043364
:1013800019800233090C1970D31D00221A605A60AB
:101390009A601A730023C7F8243375E0C8B40008B4
:1013A000DCB4000800080048B40300200802002054
:1013B00000040048F00200205003002008B4000898
:1013C0006C02002024B40008CC030020F0B4000814
:1013D000474B1968464B5B6807F52570D7F84023E3
:1013E00002923A46019200930B46D7F83C234149BA
:1013F00006F05AFAC7F82003D7F820339AB207F557
:10140000257164233C4804F017FFD7F88822D7F8E9
:10141000843207F52570394906F046FAC7F82003EB
:10142000D7F820339AB207F525716423344804F0C5
:1014300003FF2F4B19682E4B5B6807F52570D7F813
:10144000402302923A46019200930B46D7F83C2380
:101450002C4906F029FAC7F82003D7F820339AB2AE
:1014600007F525716423264804F0E6FED7F84033DB
:101470000133C7F8403340F2DC5000F0F5FFD7F8F5
:1014800024330133C7F82433D7F82433092B9FDDE5
:101490000023C7F84033D7F83C330133C7F83C3357
:1014A00001220221184802F0B5FE40F6B83000F0E3
:1014B000DBFF01220421144802F0ACFE40F6B830F4
:1014C00000F0D2FF002202210F4802F0A3FE00220A
:1014D0004FF480610C4802F09DFE002204210A486E
:1014E00002F098FE40F2DC5000F0BEFFEFE500BFD6
:1014F000F002002008B400086C02002030B400089C
:10150000CC03002094B400080004004880B5B8B0B3
:1015100000AF07F19C0344220021184605F03CFB74
:1015200007F1880300221A605A609A60DA601A6133
:101530003B4688220021184605F02EFB1023C7F8F1
:101540009C300123C7F8B4300023C7F8B8306023BB
:10155000C7F8BC300223C7F8C4300123C7F8C8302D
:101560000123C7F8CC302823C7F8D0300723C7F8A9
:10157000D4300223C7F8D8300223C7F8DC3007F193
:101580009C03184602F0C2FE0346002B01D000F077
:101590001FFC0F23C7F888300323C7F88C300023C3
:1015A000C7F890300023C7F894300023C7F898306C
:1015B00007F188030421184603F08EFA0346002B36
:1015C00001D000F005FC44F203033B600023BB6341
:1015D0000423FB634FF08053BB6701237B6001232F
:1015E000BB601023FB6007233B6102237B61022366
:1015F000BB614FF08073FB613B46184603F072FC01
:101600000346002B01D000F0E3FB4FF4007002F022
:1016100027FE0346002B01D000F0DAFB00BFE037C5
:10162000BD4680BD80B58AB000AF07F11C03002223
:101630001A605A609A603B1D00221A605A609A60D4
:10164000DA601A615A61544B544A1A60524B4FF493
:1016500080225A60504B00229A604F4B0022DA6081
:101660004D4B01221A614C4B04225A614A4B002215
:101670001A76494B01225A76474B0622DA61464BCD
:10168000002283F82020444B00229A62424B002221
:10169000DA62414B012283F830203F4B00225A632B
:1016A0003D4B002283F838203B4801F0D7F8034631
:1016B000002B01D000F08CFB0023FB6107F11C0321
:1016C0001946354801F0EAFF0346002B01D000F02F
:1016D0007FFB334B7B600623BB600023FB607F23D3
:1016E0003B6104237B610023BB613B1D19462A48F3
:1016F00001F0C8FA0346002B01D000F069FB294B2A
:101700007B600C23BB603B1D1946234801F0BAFAED
:101710000346002B01D000F05BFB234B7B601223C0
:10172000BB603B1D19461C4801F0ACFA0346002B78
:1017300001D000F04DFB1D4B7B601823BB603B1DAF
:101740001946154801F09EFA0346002B01D000F01F
:101750003FFB174B7B604FF48073BB603B1D19460A
:101760000D4801F08FFA0346002B01D000F030FB4A
:10177000104B7B604FF48373BB603B1D19460648DA
:1017800001F080FA0346002B01D000F021FB00BFDE
:101790002837BD4680BD00BF08020020000004506D
:1017A00002003004040060080800900C1000C01013
:1017B0002000F0144000201980B500AF1B4B1C4ADC
:1017C0001A601A4B4FF482725A60184B00229A60CA
:1017D000164B4FF47062DA60144B00221A61134BFF
:1017E00000225A61114B4FF400729A610F4B302264
:1017F000DA610E4B00221A620C4B00225A620B4B2C
:1018000000229A62094B0722DA62084B00221A630F
:10181000064B00225A63054804F020F80346002BCB
:1018200001D000F0D5FA00BF80BD00BF50030020FA
:101830000030014080B500AF144B154A1A60134BBD
:101840004FF416525A60114B00229A600F4B00223F
:10185000DA600E4B00221A610C4B0C225A610B4BC2
:1018600000229A61094B0022DA61084B00221A62B9
:10187000064B00225A62054804F090FC0346002BF8
:1018800001D000F0A5FA00BF80BD00BF6C020020AF
:101890000038014080B500AF144B154A1A60134B55
:1018A0004FF4E1325A60114B00229A600F4B002234
:1018B000DA600E4B00221A610C4B0C225A610B4B62
:1018C00000229A61094B0022DA61084B00221A6259
:1018D000064B00225A62054804F060FC0346002BC8
:1018E00001D000F075FA00BF80BD00BFCC0300201E
:1018F0000044004080B582B000AF0C4B9B6C0B4A9B
:1019000043F001039364094B9B6C03F001037B607C
:101910007B68002200210B2002F04BF80B2002F024
:1019200064F800BF0837BD4680BD00BF001002400C
:1019300080B588B000AF07F10C0300221A605A602E
:101940009A60DA601A61364BDB6C354A43F0040367
:10195000D364334BDB6C03F00403BB60BB68304BD8
:10196000DB6C2F4A43F00103D3642D4BDB6C03F097
:1019700001037B607B682A4BDB6C294A43F002033E
:10198000D364274BDB6C03F002033B603B6800220F
:1019900040F20641234802F03DFC00224FF4E07182
:1019A000214802F037FC0123FB6000233B61002348
:1019B0007B6107F10C0319461A4802F069FA40F2FC
:1019C0000643FB6001233B6100237B610023BB6175
:1019D00007F10C031946134802F05AFA4FF4E0736A
:1019E000FB6001233B6100237B610023BB6107F1A6
:1019F0000C0319460C4802F04BFA4FF4F853FB6005
:101A000000233B6100237B6107F10C0319464FF073
:101A1000904002F03DFA00BF2037BD4680BD00BFB8
:101A200000100240000400480008004800000000C8
:101A3000F0B5E7B006AF07F10C03186007F1080333
:101A400019603B1D1A6007F1140300221A60043369
:101A50004FF4AD720021184605F09EF80023C7F838
:101A60007C313B1D1868FEF75DFD27A3D3E90023F9
:101A7000FEF7C2FD02460B4610461946FFF7B4F8C2
:101A80000346C7F8783107F108031B684E2202FBB2
:101A900003F307EE903AF8EEE77AC7ED5D7AD7F8F0
:101AA0007401FEF751FD04460D46D7F87801FEF7A4
:101AB0004BFD02460B4607F1080007F10C0107F148
:101AC0001406CDE904233B1D1B680293CDE90045B4
:101AD00003680A680A49304605F0E6FEC7F87C014B
:101AE000D7F87C319AB207F114016423054804F059
:101AF000A3FB00BF07F5C277BD46F0BDAFF3008082
:101B000004B50008CC0300206666666666664A3F38
:101B1000B0B584B000AFF860B9607A60F868FEF7DD
:101B200001FD04460D46B868FEF7FCFC4FF0333269
:101B30008D4BFEF761FD02460B4620462946FEF717
:101B4000EBFF0346002B03D07B68143B7B6018E05F
:101B5000F868FEF7E7FC04460D46B868FEF7E2FCBD
:101B600073A3D3E90023FEF747FD02460B46204648
:101B70002946FEF7D1FF0346002B02D07B680A3BC3
:101B80007B60F868FEF7CEFC04460D46B868FEF7A9
:101B9000C9FC69A3D3E90023FEF72EFD02460B46DC
:101BA00020462946FEF7B8FF0346002B03D07B688A
:101BB000053B7B60AAE0FA68BB689A4203DD7B685C
:101BC000013B7B60A2E0F868FEF7ACFC04460D46E2
:101BD000B868FEF7A7FC4FF00002644BFEF70CFD5F
:101BE00002460B4620462946FEF778FF0346002BA7
:101BF00003D07B6832337B6088E0F868FEF792FCA4
:101C000004460D46B868FEF78DFC4DA3D3E90023CA
:101C1000FEF7F2FC02460B4620462946FEF75EFF21
:101C20000346002B03D07B6805337B606EE0F868C9
:101C3000FEF778FC04460D46B868FEF773FC42A335
:101C4000D3E90023FEF7D8FC02460B46204629467E
:101C5000FEF744FF0346002B03D07B680A337B600A
:101C600054E0F868FEF75EFC04460D46B868FEF7DF
:101C700059FC37A3D3E90023FEF7BEFC02460B460E
:101C800020462946FEF72AFF0346002B03D07B6837
:101C900014337B603AE0F868FEF744FC04460D46D6
:101CA000B868FEF73FFC2CA3D3E90023FEF7A4FCA1
:101CB00002460B4620462946FEF710FF0346002B3E
:101CC00003D07B681E337B6020E0F868FEF72AFCB7
:101CD00004460D46B868FEF725FC21A3D3E900238E
:101CE000FEF78AFC02460B4620462946FEF7F6FE22
:101CF0000346002B03D07B6828337B6006E0FA683C
:101D0000BB689A4202DA7B6801337B607B68802B78
:101D100001DD80237B607B68002B01DA00237B6080
:101D20007B6818461037BD46B0BD00BFAFF30080DA
:101D30009A9999999999F13FA4703D0AD7A3F03FD8
:101D4000B81E85EB51B8EE3FCDCCCCCCCCCCEC3F23
:101D50009A9999999999E93F666666666666E63F3B
:101D6000333333333333E33F3333F33F0000E03F68
:101D700080B483B000AF786000BF0C37BD465DF81B
:101D8000047B704780B483B000AF78600E4B1B6853
:101D90000E4A13600C4B5B680C4A53600A4B9B68FD
:101DA0000A4A9360084BDB68084AD360064B1B69FC
:101DB000064A1361044B5B69044A536100BF0C3748
:101DC000BD465DF8047B7047B4030020F00200209C
:101DD00080B400AF72B600BFFEE7000080B483B0ED
:101DE00000AF0F4B1B6E0E4A43F0010313660C4B02
:101DF0001B6E03F001037B607B68094B9B6D084AF7
:101E000043F080539365064B9B6D03F080533B601A
:101E10003B6800BF0C37BD465DF8047B704700BFD0
:101E20000010024080B58AB000AF786007F114035B
:101E300000221A605A609A60DA601A617B681B6837
:101E4000374A934267D1374BDB6C364A43F4005331
:101E5000D364344BDB6C03F400533B613B69314B7F
:101E6000DB6C304A43F00403D3642E4BDB6C03F08D
:101E70000403FB60FB682B4BDB6C2A4A43F0010335
:101E8000D364284BDB6C03F00103BB60BB680F23FA
:101E90007B610B23BB610023FB6107F1140319462F
:101EA000214801F0F5FF03237B610B23BB61002375
:101EB000FB6107F1140319464FF0904001F0E8FF71
:101EC0001A4B1B4A1A60194B00225A60174B00220A
:101ED0009A60164B0022DA60144B80221A61134B71
:101EE0004FF400725A61114B4FF400629A610F4B2C
:101EF0002022DA610D4B00221A620C4801F090FD9D
:101F00000346002B01D0FFF763FF7B68074ADA64C2
:101F1000064A7B68936200BF2837BD4680BD00BF7C
:101F20000000045000100240000800480803002090
:101F30000800024080B58AB000AF786007F1140352
:101F400000221A605A609A60DA601A617B681B6826
:101F50001B4A934230D11B4B1B6E1A4A43F48053E9
:101F60001366184B1B6E03F480533B613B69154BA2
:101F7000DB6C144A43F00103D364124BDB6C03F0B7
:101F80000103FB60FB68A0237B610223BB6100238C
:101F9000FB6103233B6205237B6207F114031946AF
:101FA0004FF0904001F074FF00220021232001F047
:101FB00000FD232001F019FD00BF2837BD4680BD7C
:101FC000003001400010024080B58CB000AF786056
:101FD00007F11C0300221A605A609A60DA601A61E5
:101FE0007B681B682E4A934228D12E4B1B6E2D4ACC
:101FF00043F4804313662B4B1B6E03F48043BB6199
:10200000BB69284BDB6C274A43F00203D364254BA2
:10201000DB6C03F002037B617B69C023FB6102235D
:102020003B6200237B620323BB620723FB6207F151
:102030001C0319461C4801F02BFF2DE07B681B6830
:102040001A4A934228D1174B9B6D164A43F400332A
:102050009365144B9B6D03F400333B613B69114B5B
:10206000DB6C104A43F00103D3640E4BDB6C03F0CE
:102070000103FB60FB680C23FB6102233B6200232E
:102080007B620323BB620723FB6207F11C03194633
:102090004FF0904001F0FCFE00BF3037BD4680BDE0
:1020A0000038014000100240000400480044004095
:1020B00080B400AF00BFBD465DF8047B704780B4BC
:1020C00000AFFEE780B400AFFEE780B400AFFEE7EC
:1020D00080B400AFFEE780B400AF00BFBD465DF83E
:1020E000047B704780B400AF00BFBD465DF8047B41
:1020F000704780B400AF00BFBD465DF8047B7047F9
:1021000080B500AF00F090F900BF80BD80B500AF92
:10211000024801F0DEFD00BF80BD00BF08030020C3
:1021200080B500AF024803F0ABFD00BF80BD00BF2B
:102130005003002080B400AF01231846BD465DF86F
:10214000047B704780B582B000AF7860396004F0DE
:10215000F9FC034616221A604FF0FF331846083781
:10216000BD4680BD80B582B000AF78604FF0FF31D2
:102170007868FFF7E7FFFEE780B586B000AFF8604C
:10218000B9607A6000237B610AE0AFF3008001460A
:10219000BB685A1CBA60CAB21A707B6901337B6192
:1021A0007A697B689A42F0DB7B6818461837BD462F
:1021B00080BD80B586B000AFF860B9607A6000235A
:1021C0007B6109E0BB685A1CBA601B781846AFF304
:1021D00000807B6901337B617A697B689A42F1DB1D
:1021E0007B6818461837BD4680BD80B483B000AF09
:1021F00078604FF0FF3318460C37BD465DF8047B1E
:10220000704780B483B000AF786039603B684FF4AA
:1022100000525A60002318460C37BD465DF8047B17
:10222000704780B483B000AF7860012318460C3744
:10223000BD465DF8047B704780B485B000AFF860A0
:10224000B9607A60002318461437BD465DF8047BF8
:102250007047000080B586B000AF7860144A154B17
:10226000D31A7B617B693B61134B1B68002B02D146
:10227000114B124A1A60104B1A687B6813443A6972
:102280009A4207D204F05EFC03460C221A604FF01B
:10229000FF3309E0084B1B68FB60074B1A687B683B
:1022A0001344054A1360FB6818461837BD4680BDC5
:1022B0000080012000040000FC01002068040020D0
:1022C00080B400AF174BD3F88830164A43F470033C
:1022D000C2F88830144B1B68134A43F001031360A3
:1022E000114B00229A60104B1B680F4A23F0A85331
:1022F00023F4102313600C4B4FF48052DA600A4B26
:102300001B68094A23F480231360074B00229A615B
:10231000044B4FF000629A6000BFBD465DF8047B3D
:10232000704700BF00ED00E000100240DFF834D03D
:10233000FFF7C6FF002103E00B4B5B58435004310D
:102340000A480B4B42189A42F6D30A4A02E000238D
:1023500042F8043B084B9A42F9D304F0F9FBFEF72C
:1023600045FEFEE7008001201CBB000800000020A5
:10237000E0010020E001002064040020FEE780B5B9
:1023800082B000AF0023FB71032001F007FB0020A7
:1023900000F00EF80346002B02D00123FB7101E090
:1023A000FFF71CFDFB7918460837BD4680BD0000CD
:1023B00080B584B000AF78600023FB73174B1B78A7
:1023C000002B23D0164B1A68144B1B7819464FF478
:1023D0007A73B3FBF1F3B2FBF3F3184601F013FB8E
:1023E0000346002B0FD17B680F2B09D80022796898
:1023F0004FF0FF3001F0DDFA0A4A7B68136007E016
:102400000123FB7304E00123FB7301E00123FB7351
:10241000FB7B18461037BD4680BD00BF080000207A
:10242000000000200400002080B400AF064B1B78A1
:102430001A46064B1B681344044A136000BFBD468E
:102440005DF8047B704700BF0800002050040020A6
:1024500080B400AF034B1B681846BD465DF8047B93
:10246000704700BF5004002080B584B000AF786092
:10247000FFF7EEFFB8607B68FB60FB68B3F1FF3FDE
:1024800005D00A4B1B781A46FB681344FB6000BF5B
:10249000FFF7DEFF0246BB68D31AFA689A42F7D804
:1024A00000BF00BF1037BD4680BD00BF0800002040
:1024B00080B483B000AF786039607B689B6823F498
:1024C0007C123B681A437B689A6000BF0C37BD469C
:1024D0005DF8047B704780B483B000AF78603960EA
:1024E0007B689B6823F0E0723B681A437B689A60C4
:1024F00000BF0C37BD465DF8047B704780B483B0E5
:1025000000AF78607B689B6803F0E07318460C3777
:10251000BD465DF8047B704780B487B000AFF860BB
:10252000B9607A603B60FB6860331A46BB689B0009
:1025300013447B617B691A68084B13407A6802F088
:10254000F8413A680A43134343F000427B691A603A
:1025500000BF1C37BD465DF8047B704700F0FF03E9
:1025600080B485B000AF786039607B6860331A460C
:102570003B689B001344FB60FB681B6803F0F84357
:1025800018461437BD465DF8047B704780B487B0A9
:1025900000AFF860B9607A60FB6860331A46BB68C8
:1025A0009B0013447B617B691B6823F000427B68BE
:1025B0001A437B691A6000BF1C37BD465DF8047B77
:1025C000704780B483B000AF78607B68DB6803F449
:1025D0004063002B01D1012300E0002318460C3793
:1025E000BD465DF8047B704780B487B000AFF860EB
:1025F000B9607A60FB6830331A46BB681B0A9B00DF
:1026000003F00C0313447B617B691A68BB6803F019
:102610001F031F2101FA03F3DB431A407B689B0E63
:1026200003F01F01BB6803F01F0301FA03F31A4311
:102630007B691A6000BF1C37BD465DF8047B70479C
:1026400080B487B000AFF860B9607A60FB6814337B
:102650001A46BB685B0E9B0003F0040313447B61C6
:102660007B691A68BB681B0D03F01F03072101FA81
:1026700003F3DB431A40BB681B0D03F01F037968AB
:1026800001FA03F31A437B691A6000BF1C37BD4689
:102690005DF8047B7047000080B485B000AFF8603F
:1026A000B9607A60FB68D3F8B020BB68C3F312034B
:1026B000DB431A407B6803F018030849D940BB6824
:1026C0000B40C3F312031A43FB68C3F8B02000BFEA
:1026D0001437BD465DF8047B704700BFFFFF07005D
:1026E00080B483B000AF78607B689B6803F01F0301
:1026F00018460C37BD465DF8047B704780B483B044
:1027000000AF78607B689B6823F0204323F03F0391
:102710007A68936000BF0C37BD465DF8047B704754
:1027200080B483B000AF78607B689B6803F000538F
:10273000B3F1005F01D1012300E0002318460C37FC
:10274000BD465DF8047B704780B483B000AF78600D
:102750007B689B6823F0104323F03F0343F08052D3
:102760007B689A6000BF0C37BD465DF8047B7047FC
:1027700080B483B000AF78607B689B6803F08053BF
:10278000B3F1805F01D1012300E0002318460C372C
:10279000BD465DF8047B704780B483B000AF7860BD
:1027A0007B689B6823F0004323F03F0343F0010262
:1027B0007B689A6000BF0C37BD465DF8047B7047AC
:1027C00080B483B000AF78607B689B6803F001033E
:1027D000012B01D1012300E0002318460C37BD4630
:1027E0005DF8047B704780B483B000AF78607B688D
:1027F0009B6823F0004323F03F0343F004027B680F
:102800009A6000BF0C37BD465DF8047B704780B40A
:1028100083B000AF78607B689B6803F00403042BEF
:1028200001D1012300E0002318460C37BD465DF8B6
:10283000047B704780B483B000AF78607B689B688E
:1028400003F00803082B01D1012300E00023184600
:102850000C37BD465DF8047B7047000090B589B029
:1028600000AF78600023FB770023BB607B68002B00
:1028700001D1012336E17B681B69002B7B685B6D0E
:10288000002B09D17868FFF7CDFA7B6800229A65A2
:102890007B68002283F850207B681B681846FFF78E
:1028A0003FFF0346002B04D07B681B681846FFF7E8
:1028B00025FF7B681B681846FFF75AFF0346002B6D
:1028C00015D17B681B681846FFF73EFF874B1B68D6
:1028D0009B09874AA2FB03239B0901335B00BB6072
:1028E00002E0BB68013BBB60BB68002BF9D17B6891
:1028F0001B681846FFF73CFF0346002B0DD17B6891
:102900005B6D43F010027B685A657B689B6D43F0FA
:1029100001027B689A650123FB777B681B68184678
:10292000FFF775FF78617B685B6D03F01003002B88
:1029300040F0CF807B69002B40F0CB807B685B6DE3
:1029400023F4817343F002027B685A657B681B683D
:102950001846FFF735FF0346002B15D16548FFF7F2
:102960002FFF04466448FFF72BFF03461C436348D0
:10297000FFF726FF03462343002B05D17B685B68E6
:1029800019465F48FFF794FD7B685B7E5A037B68BE
:102990005B6B1A437B68DB681A437B689B681A434E
:1029A0007B6893F820301B041343BB617B6893F86A
:1029B0002030012B06D17B685B6A013B5B04BA695E
:1029C0001343BB617B689B6A002B09D07B689B6AC1
:1029D00003F470727B68DB6A1343BA691343BB610B
:1029E0007B681B68DA68474B13407A681268B969DC
:1029F0000B43D3607B681B681846FFF708FF3861FC
:102A00007B681B681846FFF715FFF8603B69002BD1
:102A10003DD1FB68002B3AD17B681B7E9A037B6813
:102A200093F830305B001343BB617B681B68DB6845
:102A300023F4804323F002037A681268B9690B43D8
:102A4000D3607B6893F83830012B18D17B681B6802
:102A50001B6923F4FF6323F004037A68D16B7A685F
:102A6000126C11437A68526C11437A68926C0A4373
:102A70001A437B681B6842F001021A6107E07B6819
:102A80001B681A697B681B6822F001021A617B6867
:102A90001B69012B0CD17B681B681B6B23F00F019A
:102AA0007B68DB695A1E7B681B680A431A6307E070
:102AB0007B681B681A6B7B681B6822F00F021A6325
:102AC0007B685B6D23F0030343F001027B685A656A
:102AD00007E07B685B6D43F010027B685A65012359
:102AE000FB77FB7F18462437BD4690BD00000020D1
:102AF000632D3E0500000450000104500002045004
:102B00000003045007C0F0FF80B586B000AFF86046
:102B1000B9607A605048FFF7E3FD3861FB681B68D5
:102B20001846FFF774FE0346002B40F08E80FB68CA
:102B300093F85030012B01D1022389E0FB68012278
:102B400083F850203B69002B05D03B69052B02D050
:102B50003B69092B72D1F86800F084FC0346FB75D1
:102B6000FB7D002B65D1FB685B6D23F4706323F064
:102B7000010343F48072FB685A65FB681B68374A9F
:102B8000934202D0FB681B6800E0354BFA6812687C
:102B9000934202D03B69002B05D1FB685B6D23F4A7
:102BA0008012FB685A65FB685B6D03F48053002B51
:102BB00006D0FB689B6D23F00602FB689A6502E075
:102BC000FB6800229A65FB68DB6C264ADA62FB68C8
:102BD000DB6C254A1A63FB68DB6C244A5A63FB688A
:102BE0001B681C221A60FB68002283F85020FB68D7
:102BF0001B685A68FB681B6842F010025A60FB6849
:102C00001B68DA68FB681B6842F00102DA60FB6847
:102C1000D86CFB681B6840331946BA687B6800F0C3
:102C2000B7FF0346FB75FB681B681846FFF7DBFD23
:102C30000DE0FB68002283F8502008E00123FB75BB
:102C4000FB68002283F8502001E00223FB75FB7D26
:102C500018461837BD4680BD0003045000010450DB
:102C60000000045029350008013600081D36000810
:102C700080B483B000AF786000BF0C37BD465DF80C
:102C8000047B704780B5B6B000AF78603960002330
:102C900087F8D7300023FB607B6893F85030012B16
:102CA00001D10223C7E37B68012283F850207B68AF
:102CB0001B681846FFF7ABFD0346002B40F0A883C6
:102CC0003B685B68052B24D83B685B68023B032BA1
:102CD0001BD801A252F823F0E92C0008F12C0008BF
:102CE000F92C0008012D00083B680C225A6011E005
:102CF0003B6812225A600DE03B6818225A6009E0D6
:102D00003B684FF480725A6004E03B6806225A60C8
:102D100000E000BF7B6818683B6859683B681B6827
:102D20001A46FFF761FC7B681B681846FFF76FFDCA
:102D3000C7F8D0007B681B681846FFF77BFDC7F813
:102D4000CC00D7F8D030002B40F0A681D7F8CC309B
:102D5000002B40F0A1817B6818683B6819683B68CC
:102D60009B681A46FFF76CFC3B685A697B681B68D6
:102D7000DB68DB0803F003035B0002FA03F3C7F828
:102D8000C8303B681B69042B0AD07B6818683B6815
:102D900019693B681A68D7F8C830FFF7BDFB7BE1BB
:102DA0007B681B6800211846FFF7DAFB0346C3F374
:102DB0001203002B0AD17B681B6800211846FFF71D
:102DC000CFFB03469B0E03F01F021EE07B681B68CF
:102DD00000211846FFF7C4FB0346C7F8BC30D7F8FC
:102DE000BC3093FAA3F3C7F8B830D7F8B830C7F8B7
:102DF000C030D7F8C030002B01D1202304E0D7F831
:102E0000C030B3FA83F3DBB21A463B681B68C3F3E6
:102E10001203002B05D13B681B689B0E03F01F03B8
:102E200018E03B681B68C7F8B030D7F8B03093FAA9
:102E3000A3F3C7F8AC30D7F8AC30C7F8B430D7F844
:102E4000B430002B01D1202304E0D7F8B430B3FA1A
:102E500083F3DBB29A4206D17B681B680022002113
:102E60001846FFF793FB7B681B6801211846FFF7A4
:102E700077FB0346C3F31203002B0AD17B681B6860
:102E800001211846FFF76CFB03469B0E03F01F025F
:102E90001EE07B681B6801211846FFF761FB0346B3
:102EA000C7F8A430D7F8A43093FAA3F3C7F8A0303A
:102EB000D7F8A030C7F8A830D7F8A830002B01D138
:102EC000202304E0D7F8A830B3FA83F3DBB21A4624
:102ED0003B681B68C3F31203002B05D13B681B68DA
:102EE0009B0E03F01F0318E03B681B68C7F898307F
:102EF000D7F8983093FAA3F3C7F89430D7F8943002
:102F0000C7F89C30D7F89C30002B01D1202304E077
:102F1000D7F89C30B3FA83F3DBB29A4206D17B68D0
:102F20001B68002201211846FFF730FB7B681B68F5
:102F300002211846FFF714FB0346C3F31203002BCC
:102F40000AD17B681B6802211846FFF709FB03467C
:102F50009B0E03F01F021EE07B681B6802211846CF
:102F6000FFF7FEFA0346C7F88C30D7F88C3093FA97
:102F7000A3F3C7F88830D7F88830C7F89030D7F86F
:102F80009030002B01D1202304E0D7F89030B3FA21
:102F900083F3DBB21A463B681B68C3F31203002BB2
:102FA00005D13B681B689B0E03F01F0316E03B68CE
:102FB0001B68C7F88030D7F8803093FAA3F3FB671B
:102FC000FB6FC7F88430D7F88430002B01D1202361
:102FD00004E0D7F88430B3FA83F3DBB29A4206D127
:102FE0007B681B68002202211846FFF7CFFA7B6836
:102FF0001B6803211846FFF7B3FA0346C3F3120315
:10300000002B0AD17B681B6803211846FFF7A8FA3A
:1030100003469B0E03F01F0217E07B681B68032129
:103020001846FFF79DFA03467B677B6F93FAA3F37D
:103030003B673B6FBB67BB6F002B01D1202303E0D5
:10304000BB6FB3FA83F3DBB21A463B681B68C3F36A
:103050001203002B05D13B681B689B0E03F01F0376
:1030600011E03B681B68BB66BB6E93FAA3F37B66FB
:103070007B6EFB66FB6E002B01D1202303E0FB6E11
:10308000B3FA83F3DBB29A4206D17B681B68002255
:1030900003211846FFF77AFA7B681B681846FFF78A
:1030A0008FFB0346002B40F03F817B6818683B682C
:1030B00019683B68DB681A46FFF7EEFA3B68DB6885
:1030C0008E4A934240F030817B6818683B681B68E9
:1030D000C3F31203002B0BD13B681B689B0E01331B
:1030E00003F01F03092B94BF01230023DBB219E077
:1030F0003B681B68FB65FB6D93FAA3F3BB65BB6D77
:103100003B663B6E002B01D1202303E03B6EB3FAFC
:1031100083F3DBB2013303F01F03092B94BF0123B8
:103120000023DBB2002B79D03B681B68C3F312038A
:10313000002B07D13B681B689B0E01339B0603F0F5
:10314000F84215E03B681B683B653B6D93FAA3F3BF
:10315000FB64FB6C7B657B6D002B01D1202303E0BE
:103160007B6DB3FA83F3DBB201339B0603F0F842C5
:103170003B681B68C3F31203002B09D13B681B6833
:103180009B0E013303F01F03012101FA03F317E043
:103190003B681B687B647B6C93FAA3F33B643B6CDA
:1031A000BB64BB6C002B01D1202303E0BB6CB3FAE2
:1031B00083F3DBB2013303F01F03012101FA03F3B0
:1031C00042EA03013B681B68C3F31203002B0AD1D8
:1031D0003B681B689B0E013303F01F0213465B0024
:1031E00013441B0518E03B681B68BB63BB6B93FA79
:1031F000A3F37B637B6BFB63FB6B002B01D1202371
:1032000003E0FB6BB3FA83F3DBB2013303F01F027D
:1032100013465B0013441B050B4380E03B681B68AF
:10322000C3F31203002B07D13B681B689B0E0133CD
:103230009B0603F0F84215E03B681B68FB62FB6AE3
:1032400093FAA3F3BB62BB6A3B633B6B002B01D1D8
:10325000202303E03B6BB3FA83F3DBB201339B061D
:1032600003F0F8423B681B68C3F31203002B09D13B
:103270003B681B689B0E013303F01F03012101FA19
:1032800003F317E03B681B683B623B6A93FAA3F3C6
:10329000FB61FB697B627B6A002B01D1202303E089
:1032A0007B6AB3FA83F3DBB2013303F01F0301211E
:1032B00001FA03F342EA03013B681B68C3F31203FC
:1032C000002B0DD13B681B689B0E013303F01F02DE
:1032D00013465B0013441E3B1B0543F000731DE0C7
:1032E0003B681B687B617B6993FAA3F33B613B6995
:1032F000BB61BB69002B03D1202305E000007F40A8
:10330000BB69B3FA83F3DBB2013303F01F02134648
:103310005B0013441E3B1B0543F000730B433A68EC
:1033200092681946FFF78CF93B681A68444B1340C2
:10333000002B7AD04348FFF7E1F8C7F8C4003B6898
:103340001B68414A93422CD1D7F8C43003F40003E0
:10335000002B26D17B681B683C4A934204D07B68D3
:103360001B683B4A93425DD1D7F8C43043F4000355
:1033700019463448FFF7AFF8364B1B689B09364AAD
:10338000A2FB03239B095A1C13465B0013449B00BA
:10339000FB6002E0FB68013BFB60FB68002BF9D19E
:1033A00040E03B681B682D4A934218D1D7F8C430DF
:1033B00003F08073002B12D17B681B68234A934271
:1033C00004D07B681B68224A93422DD1D7F8C430C1
:1033D00043F0807319461B48FFF77DF824E03B68F3
:1033E0001B681F4A934220D1D7F8C43003F48003EE
:1033F000002B1AD17B681B68144A934215D1D7F869
:10340000C43043F4800319460E48FFF764F80CE01B
:103410007B685B6D43F020027B685A65012387F867
:10342000D73002E000BF00E000BF7B68002283F8D5
:10343000502097F8D7301846D837BD4680BD00BF1A
:103440000000088000030450000052C70000045030
:103450000002045000000020632D3E05000084CBD4
:103460000100008080B584B000AF78607B681B6885
:103470001846FFF7A5F90346002B4DD17B681B6862
:103480009A68284B1340002B0DD07B685B6D43F08E
:1034900010027B685A657B689B6D43F001027B6874
:1034A0009A65012339E07B681B681846FFF774F9B9
:1034B000FEF7CEFFF86028E07B681B681846FFF730
:1034C0007FF90346002B04D17B681B681846FFF781
:1034D00063F9FEF7BDFF0246FB68D31A022B14D92D
:1034E0007B681B681B6803F00103012B0DD07B6810
:1034F0005B6D43F010027B685A657B689B6D43F0FF
:1035000001027B689A65012307E07B681B681B68E2
:1035100003F00103012BCFD1002318461037BD461D
:1035200080BD00BF3F00008080B584B000AF7860F0
:103530007B689B6AFB60FB685B6D03F05003002BAC
:103540004BD1FB685B6D43F40072FB685A65FB6806
:103550001B681B6803F00803002B21D0FB681B6865
:103560001846FFF72EF80346002B32D0FB681B6885
:10357000DB6803F40053002B2BD1FB685B6D23F455
:103580008072FB685A65FB685B6D03F48053002B07
:103590001FD1FB685B6D43F00102FB685A6518E0C0
:1035A000FB681B68DB6803F00203002B11D1FB688A
:1035B0005B6D23F48072FB685A65FB685B6D03F4F6
:1035C0008053002B05D1FB685B6D43F00102FB6863
:1035D0005A65F868FEF7D6FB0EE0FB685B6D03F0FA
:1035E0001003002B03D0F868FFF742FB04E0FB68F0
:1035F000DB6C5B6B7868984700BF1037BD4680BDB9
:1036000080B584B000AF78607B689B6AFB60F86827
:10361000FEF7AEFB00BF1037BD4680BD80B584B05D
:1036200000AF78607B689B6AFB60FB685B6D43F072
:103630004002FB685A65FB689B6D43F00402FB681F
:103640009A65F868FFF714FB00BF1037BD4680BDD0
:1036500080B483B000AF78607B689B6803F001039F
:10366000012B01D1012300E0002318460C37BD4691
:103670005DF8047B704780B483B000AF78607B68EE
:103680009B6803F00403042B01D1012300E0002315
:1036900018460C37BD465DF8047B704790B59FB067
:1036A00000AF78603960002387F877307B6893F843
:1036B0005030012B01D1022393E07B68012283F873
:1036C00050200023FB6500233B667B681B68474A4C
:1036D000934202D1464BBB6001E00023BB60BB6854
:1036E000002B0BD17B685B6D43F020027B685A6531
:1036F0007B68002283F85020012372E0BB681846E3
:10370000FFF7B9FF38677B681B681846FFF7B3FF00
:103710000346002B54D13B6F002B51D1354BFB6638
:103720003B681B68002B2CD0FB6E9B6823F4604227
:103730003B6859687B6893F830305B030B431A434E
:10374000FB6E9A602948FFF783FF04462848FFF77D
:103750007FFF03461C432848FFF77AFF03462343B5
:10376000002B37D1FB6E9B6823F4716323F00F03AA
:103770003A6811683A6892680A431A43FB6E9A6085
:1037800028E0FB6E9B6823F46042FB6E9A6017484A
:10379000FFF75EFF04461648FFF75AFF03461C4337
:1037A0001548FFF755FF03462343002B12D1FB6E4C
:1037B0009B6823F4716323F00F03FA6E936009E0B2
:1037C0007B685B6D43F020027B685A65012387F8B4
:1037D000773000E000BF7B68002283F8502097F824
:1037E000773018467C37BD4690BD00BF00000450BE
:1037F00000010450000304500002045080B485B05E
:1038000000AF78607B6803F00703FB600C4BDB685C
:10381000BB60BA684FF6FF031340BB60FB681A0237
:10382000BB68134343F0BF6343F40033BB60044AF7
:10383000BB68D36000BF1437BD465DF8047B70479A
:1038400000ED00E080B400AF044BDB681B0A03F01E
:1038500007031846BD465DF8047B704700ED00E0A5
:1038600080B483B000AF0346FB7197F90730002B9B
:103870000BDBFB7903F01F02074997F907305B095F
:10388000012000FA02F241F8232000BF0C37BD46A8
:103890005DF8047B704700BF00E100E080B483B0B6
:1038A00000AF03463960FB7197F90730002B0ADB44
:1038B0003B68DAB20C4997F907301201D2B20B44D7
:1038C00083F800230AE03B68DAB20849FB7903F089
:1038D0000F03043B1201D2B20B441A7600BF0C371F
:1038E000BD465DF8047B704700E100E000ED00E0BC
:1038F00080B489B000AFF860B9607A60FB6803F00B
:103900000703FB61FB69C3F10703042B28BF0423F2
:10391000BB61FB690433062B02D9FB69033B00E062
:1039200000237B614FF0FF32BB6902FA03F3DA43F5
:10393000BB681A407B699A404FF0FF317B6901FAFE
:1039400003F3D9437B680B40134318462437BD4625
:103950005DF8047B7047000080B582B000AF7860EE
:103960007B68013BB3F1807F01D301230FE00A4A5A
:103970007B68013B53600F214FF0FF30FFF78EFF54
:10398000054B00229A60044B07221A600023184658
:103990000837BD4680BD00BF10E000E080B582B0B2
:1039A00000AF78607868FFF729FF00BF0837BD4691
:1039B00080BD80B586B000AF0346B9607A60FB7306
:1039C00000237B61FFF73EFF78617A68B968786908
:1039D000FFF78EFF024697F90F3011461846FFF7A2
:1039E0005DFF00BF1837BD4680BD80B582B000AF17
:1039F0000346FB7197F907301846FFF731FF00BF08
:103A00000837BD4680BD80B582B000AF7860786869
:103A1000FFF7A2FF034618460837BD4680BD0000E9
:103A200080B485B000AF78607B68002B01D10123A2
:103A300098E07B681B681A464D4B9A420FD87B680A
:103A40001B681A464B4B13444B4AA2FB03231B092A
:103A50009A007B685A647B68484A1A640EE07B6867
:103A60001B681A46464B1344434AA2FB03231B0917
:103A70009A007B685A647B68424A1A647B68022217
:103A800083F825207B681B681B68FB60FB6823F4B8
:103A9000FF4323F07003FB607B689A687B68DB68F8
:103AA0001A437B681B691A437B685B691A437B680E
:103AB0009B691A437B68DB691A437B681B6A134363
:103AC000FA681343FB607B681B68FA681A607B68BE
:103AD0009B68B3F5804F39D07B681B6C274A9342B3
:103AE0001AD1294B1A687B685B6C03F01C030F2109
:103AF00001FA03F3DB43244913400B60224B1A689D
:103B00007B6859687B685B6C03F01C0301FA03F364
:103B10001D4913430B6019E01C4B1A687B685B6CF2
:103B200003F01C030F2101FA03F3DB431749134091
:103B30000B60164B1A687B6859687B685B6C03F0F6
:103B40001C0301FA03F3114913430B607B68002245
:103B5000DA637B68012283F825207B68002283F8E2
:103B60002420002318461437BD465DF8047B7047B7
:103B700007040240F8FFFDBFCDCCCCCC00000240D2
:103B8000F8FBFDBF00040240A8000240A804024068
:103B900080B586B000AFF860B9607A603B60002302
:103BA000FB75FB6893F82430012B01D102234BE015
:103BB000FB68012283F82420FB6893F82530DBB2F0
:103BC000012B3AD1FB68022283F82520FB680022F2
:103BD000DA63FB681B681A68FB681B6822F0010245
:103BE0001A603B687A68B968F86800F021F9FB68E8
:103BF0001B6B002B08D0FB681B681A68FB681B68EE
:103C000042F00E021A600FE0FB681B681A68FB683E
:103C10001B6822F004021A60FB681B681A68FB68C4
:103C20001B6842F00A021A60FB681B681A68FB688E
:103C30001B6842F001021A6005E0FB68002283F86D
:103C400024200223FB75FB7D18461837BD4680BD36
:103C500080B584B000AF78600023FB737B6893F875
:103C60002530DBB2022B05D07B680422DA63012306
:103C7000FB7329E07B681B681A687B681B6822F06D
:103C80000E021A607B681B681A687B681B6822F04A
:103C900001021A607B685B6C03F01C027B681B6C82
:103CA000012101FA02F25A607B68012283F8252083
:103CB0007B68002283F824207B689B6B002B03D059
:103CC0007B689B6B78689847FB7B18461037BD462E
:103CD00080BD80B584B000AF78607B681B6C1B68CA
:103CE000FB607B681B681B68BB607B685B6C03F0D8
:103CF0001C0304229A40FB681340002B26D0BB68AB
:103D000003F00403002B21D07B681B681B6803F0C1
:103D10002003002B07D17B681B681A687B681B682F
:103D200022F004021A607B685B6C03F01C027B6863
:103D30001B6C042101FA02F25A607B681B6B002B9A
:103D400071D07B681B6B786898476CE07B685B6C14
:103D500003F01C0302229A40FB681340002B2ED074
:103D6000BB6803F00203002B29D07B681B681B682B
:103D700003F02003002B0BD17B681B681A687B685B
:103D80001B6822F00A021A607B68012283F8252052
:103D90007B685B6C03F01C027B681B6C022101FAE0
:103DA00002F25A607B68002283F824207B68DB6A79
:103DB000002B38D07B68DB6A7868984733E07B68F3
:103DC0005B6C03F01C0308229A40FB681340002B35
:103DD0002AD0BB6803F00803002B25D07B681B6842
:103DE0001A687B681B6822F00E021A607B685B6CA5
:103DF00003F01C027B681B6C012101FA02F25A607D
:103E00007B680122DA637B68012283F825207B68C6
:103E1000002283F824207B685B6B002B04D07B6836
:103E20005B6B7868984700BF00BF1037BD4680BD08
:103E300080B485B000AFF860B9607A603B60FB6821
:103E40005B6C03F01C02FB681B6C012101FA02F29F
:103E50005A60FB681B683A685A60FB689B68102BC5
:103E600008D1FB681B687A689A60FB681B68BA68AF
:103E7000DA6007E0FB681B68BA689A60FB681B6839
:103E80007A68DA6000BF1437BD465DF8047B70477E
:103E900080B487B000AF7860396000237B617FE138
:103EA0003B681A6801217B6901FA03F31340FB6048
:103EB000FB68002B00F071813B685B68012B0BD025
:103EC0003B685B68022B07D03B685B68112B03D013
:103ED0003B685B68122B30D17B689B683B617B69D8
:103EE0005B00032202FA03F3DB433A6913403B61B0
:103EF0003B68DA687B695B0002FA03F33A691343B3
:103F00003B617B683A699A607B685B683B61012230
:103F10007B6902FA03F3DB433A6913403B613B6878
:103F20005B681B0903F001027B6902FA03F33A693B
:103F300013433B617B683A695A603B685B6803F0F6
:103F40000303032B18D17B68DB6A3B6101227B6989
:103F500002FA03F3DB433A6913403B613B685B6859
:103F6000DB0803F001027B6902FA03F33A691343A9
:103F70003B617B683A69DA627B68DB683B617B693D
:103F80005B00032202FA03F3DB433A6913403B610F
:103F90003B689A687B695B0002FA03F33A69134352
:103FA0003B617B683A69DA603B685B68022B03D04F
:103FB0003B685B68122B23D17B69DA087B68083287
:103FC00053F822303B617B6903F007039B000F220B
:103FD00002FA03F3DB433A6913403B613B681A6919
:103FE0007B6903F007039B0002FA03F33A6913436A
:103FF0003B617B69DA087B680832396943F8221033
:104000007B681B683B617B695B00032202FA03F358
:10401000DB433A6913403B613B685B6803F0030292
:104020007B695B0002FA03F33A6913433B617B68E7
:104030003A691A603B685B6803F08053002B00F01C
:10404000AC805F4B1B6E5E4A43F0010313665C4B12
:104050001B6E03F00103BB60BB685A4A7B699B0877
:10406000023352F823303B617B6903F003039B006A
:104070000F2202FA03F3DB433A6913403B617B688A
:10408000B3F1904F25D07B684F4A93421FD07B6895
:104090004E4A934219D07B684D4A934213D07B68B5
:1040A0004C4A93420DD07B684B4A934207D07B68C1
:1040B0004A4A934201D106230CE007230AE0052374
:1040C00008E0042306E0032304E0022302E00123C6
:1040D00000E000237A6902F00302920093403A69FB
:1040E00013433B6137497B699B0802333A6941F8C6
:1040F00023203B4B1B683B61FB68DB433A69134061
:104100003B613B685B6803F48033002B03D03A6962
:10411000FB6813433B61324A3B691360304B5B6879
:104120003B61FB68DB433A6913403B613B685B687A
:1041300003F40033002B03D03A69FB6813433B615F
:10414000274A3B695360264B9B683B61FB68DB4316
:104150003A6913403B613B685B6803F48013002BB2
:1041600003D03A69FB6813433B611D4A3B69936086
:104170001B4BDB683B61FB68DB433A6913403B61E7
:104180003B685B6803F40013002B03D03A69FB68BB
:1041900013433B61124A3B69D3607B6901337B6106
:1041A0003B681A687B6922FA03F3002B7FF478AE30
:1041B00000BF00BF1C37BD465DF8047B704700BFE1
:1041C00000100240000001400004004800080048C0
:1041D000000C004800100048001400480018004877
:1041E0000004014080B485B000AF78600B467B804E
:1041F0007B681A697B881340002B02D00123FB7374
:1042000001E00023FB73FB7B18461437BD465DF8C5
:10421000047B704780B483B000AF78600B467B802E
:1042200013467B707B78002B03D07A887B689A6179
:1042300002E07A887B689A6200BF0C37BD465DF861
:10424000047B704780B400AF044B1B6803F4C06369
:104250001846BD465DF8047B704700BF0070004003
:1042600080B485B000AF78607B68B3F5007F30D153
:10427000234B1B6803F4C063B3F5007F38D0204B99
:104280001B6823F4C0631E4A43F4007313601D4B84
:104290001B68322202FB03F31B4AA2FB03239B0C85
:1042A0000133FB6002E0FB68013BFB60144B5B6980
:1042B00003F48063B3F5806F02D1FB68002BF2D169
:1042C0000F4B5B6903F48063B3F5806F10D1032358
:1042D0000FE00B4B1B6803F4C063B3F5806F07D08E
:1042E000074B1B6823F4C063054A43F480631360E3
:1042F000002318461437BD465DF8047B704700BFA5
:10430000007000400000002083DE1B4380B588B0B1
:1043100000AF78607B68002B01D10123D4E3A14B6F
:104320009B6803F00C03BB619E4BDB6803F0030347
:104330007B617B681B6803F01003002B00F0E480B6
:10434000BB69002B07D0BB690C2B40F08B807B69CD
:10435000012B40F08780934B1B6803F00203002B76
:1043600005D07B689B69002B01D10123ACE37B68FE
:104370001A6A8C4B1B6803F00803002B04D0894B8E
:104380001B6803F0F00305E0864BD3F894301B095B
:1043900003F0F003934223D27B681B6A184600F0B7
:1043A00041FD0346002B01D001238DE37D4B1B68AB
:1043B0007C4A43F0080313607A4B1B6823F0F00239
:1043C0007B681B6A774913430B60764B5B6823F469
:1043D0007F427B68DB691B02724913434B6025E017
:1043E000704B1B686F4A43F0080313606D4B1B68EA
:1043F00023F0F0027B681B6A6A4913430B60694B28
:104400005B6823F47F427B68DB691B0265491343C9
:104410004B60BB69002B09D17B681B6A184600F012
:1044200001FD0346002B01D001234DE300F036FCD3
:1044300002465C4B9B681B0903F00F035A49CB5C97
:1044400003F01F0322FA03F3584A1360584B1B680A
:104450001846FDF7ADFF0346FB73FB7B002B52D0E4
:10446000FB7B31E37B689B69002B32D04D4B1B6893
:104470004C4A43F001031360FDF7EAFF386108E09E
:10448000FDF7E6FF02463B69D31A022B01D903234D
:104490001AE3444B1B6803F00203002BF0D0414B9E
:1044A0001B68404A43F0080313603E4B1B6823F02F
:1044B000F0027B681B6A3B4913430B60394B5B6816
:1044C00023F47F427B68DB691B02364913434B6050
:1044D0001AE0344B1B68334A23F001031360FDF7E5
:1044E000B7FF386108E0FDF7B3FF02463B69D31A16
:1044F000022B01D90323E7E22A4B1B6803F00203D6
:10450000002BF0D100E000BF7B681B6803F00103C3
:10451000002B74D0BB69082B05D0BB690C2B0ED1C6
:104520007B69032B0BD11F4B1B6803F40033002B5B
:1045300064D07B685B68002B60D10123C4E27B6898
:104540005B68B3F5803F06D1164B1B68154A43F4F0
:10455000803313601DE07B685B68B3F5A02F0CD13E
:10456000104B1B680F4A43F4802313600D4B1B68EC
:104570000C4A43F4803313600BE00A4B1B68094A72
:1045800023F480331360074B1B68064A23F480230F
:1045900013607B685B68002B1CD0FDF759FF386106
:1045A00011E000BF001002400CB60008000000201F
:1045B00004000020FDF74CFF02463B69D31A642B30
:1045C00001D9032380E2AF4B1B6803F40033002BB7
:1045D000F0D014E0FDF73CFF386108E0FDF738FF4C
:1045E00002463B69D31A642B01D903236CE2A54B25
:1045F0001B6803F40033002BF0D100E000BF7B68A0
:104600001B6803F00203002B60D0BB69042B05D0AC
:10461000BB690C2B19D17B69022B16D1994B1B68F6
:1046200003F48063002B05D07B68DB68002B01D18D
:10463000012349E2934B5B6823F0F8527B681B69C6
:104640001B06904913434B6040E07B68DB68002BFE
:1046500023D08C4B1B688B4A43F480731360FDF7A7
:10466000F7FE386108E0FDF7F3FE02463B69D31A16
:10467000022B01D9032327E2824B1B6803F48063DA
:10468000002BF0D07F4B5B6823F0F8527B681B69EE
:104690001B067C4913434B6018E07A4B1B68794A30
:1046A00023F480731360FDF7D3FE386108E0FDF753
:1046B000CFFE02463B69D31A022B01D9032303E242
:1046C000704B1B6803F48063002BF0D17B681B6880
:1046D00003F00803002B3CD07B685B69002B1CD0E7
:1046E000684BD3F89430674A43F00103C2F8943022
:1046F000FDF7AEFE386108E0FDF7AAFE02463B6911
:10470000D31A022B01D90323DEE15E4BD3F8943098
:1047100003F00203002BEFD01BE05A4BD3F8943088
:10472000584A23F00103C2F89430FDF791FE386136
:1047300008E0FDF78DFE02463B69D31A022B01D932
:104740000323C1E14F4BD3F8943003F00203002B55
:10475000EFD17B681B6803F00403002B00F0A680F8
:104760000023FB77474B9B6D03F08053002B0DD14B
:10477000444B9B6D434A43F080539365414B9B6D83
:1047800003F08053BB60BB680123FB773E4B1B6883
:1047900003F48073002B18D13B4B1B683A4A43F457
:1047A00080731360FDF754FE386108E0FDF750FE9A
:1047B00002463B69D31A022B01D9032384E1324B11
:1047C0001B6803F48073002BF0D07B689B68012B7F
:1047D00008D12C4BD3F890302A4A43F00103C2F899
:1047E000903024E07B689B68052B10D1254BD3F8D3
:1047F0009030244A43F00403C2F89030214BD3F8A0
:104800009030204A43F00103C2F890300FE01D4B76
:10481000D3F890301B4A23F00103C2F89030194BB3
:10482000D3F89030174A23F00403C2F890307B6825
:104830009B68002B16D0FDF70BFE38610AE0FDF7F0
:1048400007FE02463B69D31A41F28832934201D9EE
:10485000032339E10B4BD3F8903003F00203002B14
:10486000EDD01AE0FDF7F4FD38610FE0FDF7F0FD43
:1048700002463B69D31A41F28832934206D9032398
:1048800022E100BF0010024000700040904BD3F8BE
:10489000903003F00203002BE8D1FB7F012B05D100
:1048A0008B4B9B6D8A4A23F0805393657B689B6A90
:1048B000002B00F008817B689B6A022B40F0D080BF
:1048C000834BDB687B617B6903F003027B68DB6AF7
:1048D0009A4230D17B6903F070027B681B6B013B0D
:1048E0001B019A4227D17B6903F4FE427B685B6B14
:1048F0001B029A421FD17B6903F400337A68926BE2
:10490000072A14BF01220022D2B2934213D17B693D
:1049100003F4C0027B68DB6B5B08013B5B059A42DA
:1049200009D17B6903F0C0627B681B6C5B08013BAB
:104930005B069A426ED0BB690C2B69D0644B1B6836
:1049400003F08063002B05D1614B1B6803F080539B
:10495000002B01D00123B7E05D4B1B685C4A23F0BC
:1049600080731360FDF774FD386108E0FDF770FD9A
:1049700002463B69D31A022B01D90323A4E0544B0E
:104980001B6803F00073002BF0D1514BDA68514BD8
:1049900013407A68D16A7A68126B013A12011143A6
:1049A0007A68526B120211437A68D26B5208013A4C
:1049B000520511437A68126C5208013A52061143AB
:1049C0007A68926B120952040A4341491343CB603F
:1049D0003F4B1B683E4A43F0807313603C4BDB68DF
:1049E0003B4A43F08073D360FDF732FD386108E045
:1049F000FDF72EFD02463B69D31A022B01D9032392
:104A000062E0334B1B6803F00073002BF0D05AE0D8
:104A1000012359E02E4B1B6803F00073002B52D189
:104A20002B4B1B682A4A43F080731360284BDB68CA
:104A3000274A43F08073D360FDF70AFD386108E030
:104A4000FDF706FD02463B69D31A022B01D9032369
:104A50003AE01F4B1B6803F00073002BF0D032E0EC
:104A6000BB690C2B2DD01A4B1B68194A23F080739D
:104A70001360174B1B6803F02053002B05D1144B18
:104A8000DB68134A23F00303D360114BDB68104A41
:104A900023F0887323F48033D360FDF7D9FC3861A9
:104AA00008E0FDF7D5FC02463B69D31A022B01D979
:104AB000032309E0064B1B6803F00073002BF0D1C1
:104AC00001E0012300E0002318462037BD4680BDE9
:104AD000001002408C809DF980B584B000AF7860F2
:104AE00039607B68002B01D10123C8E0664B1B684D
:104AF00003F007033A689A4210D9634B1B6823F00E
:104B0000070261493B6813430B605F4B1B6803F06E
:104B100007033A689A4201D00123B0E07B681B6822
:104B200003F00103002B4CD07B685B68032B07D19B
:104B3000564B1B6803F00073002B21D101239EE02C
:104B40007B685B68022B07D1504B1B6803F4003372
:104B5000002B15D1012392E07B685B68002B07D105
:104B60004A4B1B6803F00203002B09D1012386E0A6
:104B7000464B1B6803F48063002B01D101237EE0C8
:104B8000424B9B6823F003027B685B683F491343F9
:104B90008B60FDF75DFCF8600AE0FDF759FC02460A
:104BA000FB68D31A41F28832934201D9032366E0AD
:104BB000364B9B6803F00C027B685B689B009A4253
:104BC000EBD17B681B6803F00203002B08D02F4B4E
:104BD0009B6823F0F0027B689B682C4913438B6031
:104BE000294B1B6803F007033A689A4210D2264B00
:104BF0001B6823F0070224493B6813430B60224BD8
:104C00001B6803F007033A689A4201D0012336E09B
:104C10007B681B6803F00403002B08D01B4B9B68C8
:104C200023F4E0627B68DB68184913438B607B6880
:104C30001B6803F00803002B09D0144B9B6823F476
:104C400060527B681B69DB00104913438B6000F0E6
:104C500025F802460D4B9B681B0903F00F030C4916
:104C6000CB5C03F01F0322FA03F30A4A13600A4BDA
:104C70001B681846FDF79CFB0346FB72FB7A18463F
:104C80001037BD4680BD00BF00200240001002402A
:104C90000CB60008000000200400002080B489B099
:104CA00000AF0023FB610023BB613E4B9B6803F018
:104CB0000C033B613B4BDB6803F00303FB603B6988
:104CC000002B05D03B690C2B21D1FB68012B1ED199
:104CD000344B1B6803F00803002B07D1314BD3F88A
:104CE00094301B0A03F00F03FB6105E02D4B1B689A
:104CF0001B0903F00F03FB612B4AFB6952F82330B9
:104D0000FB613B69002B0DD1FB69BB610AE03B698C
:104D1000042B02D1254BBB6104E03B69082B01D178
:104D2000234BBB613B690C2B34D11E4BDB6803F07A
:104D30000303BB60BB68022B03D0BB68032B03D00B
:104D400005E01A4B7B6105E0194B7B6102E0FB69D2
:104D50007B6100BF134BDB681B0903F007030133C2
:104D60007B60104BDB681B0A03F07F037A6902FB50
:104D700003F27B68B2FBF3F37B610A4BDB685B0EEB
:104D800003F0030301335B003B607A693B68B2FBCD
:104D9000F3F3BB61BB6918462437BD465DF8047B5D
:104DA000704700BF0010024024B600080024F40041
:104DB00000127A0080B400AF034B1B681846BD4652
:104DC0005DF8047B704700BF0000002080B500AF95
:104DD000FFF7F0FF0246064B9B681B0A03F0070330
:104DE0000449CB5C03F01F0322FA03F3184680BD8D
:104DF000001002401CB6000880B500AFFFF7DAFFD4
:104E00000246064B9B68DB0A03F007030449CB5CB0
:104E100003F01F0322FA03F3184680BD001002407E
:104E20001CB6000880B586B000AF786000233B61F7
:104E30002A4B9B6D03F08053002B03D0FFF702FA3F
:104E4000786114E0254B9B6D244A43F080539365B1
:104E5000224B9B6D03F08053FB60FB68FFF7F2F978
:104E600078611E4B9B6D1D4A23F0805393657B69CF
:104E7000B3F5007F0BD17B68802B19D97B68A02B01
:104E800002D902233B6113E001233B6110E07B6800
:104E9000802B02D903233B610AE07B68802B02D17F
:104EA00002233B6104E07B68702B01D101233B614D
:104EB0000B4B1B6823F0070209493B6913430B6046
:104EC000074B1B6803F007033A699A4201D001239C
:104ED00000E0002318461837BD4680BD0010024090
:104EE0000020024080B586B000AF78600023FB74DC
:104EF0000023BB747B681B6803F40063002B41D064
:104F00007B685B6EB3F5400F2AD0B3F5400F24D811
:104F1000B3F5000F08D0B3F5000F1ED8002B0AD050
:104F2000B3F5800F10D018E0864BDB68854A43F458
:104F30008033D36015E07B6804330021184600F00D
:104F4000BBFA0346FB740CE07B6820330021184653
:104F500000F0A6FB0346FB7403E00123FB7400E0B2
:104F600000BFFB7C002B0BD1764BD3F8883023F4A9
:104F700040027B685B6E73491343C1F8883001E0DF
:104F8000FB7CBB747B681B6803F48053002B41D00F
:104F90007B689B6EB3F1407F2AD0B3F1407F24D869
:104FA000B3F1007F08D0B3F1007F1ED8002B0AD0E8
:104FB000B3F1807F10D018E0624BDB68614A43F4A4
:104FC0008033D36015E07B6804330021184600F07D
:104FD00073FA0346FB740CE07B682033002118460B
:104FE00000F05EFB0346FB7403E00123FB7400E06A
:104FF00000BFFB7C002B0BD1524BD3F8883023F041
:1050000040727B689B6E4F491343C1F8883001E0C2
:10501000FB7CBB747B681B6803F40033002B00F03F
:10502000A08000237B74474B9B6D03F08053002BC3
:1050300001D1012300E00023002B0DD0414B9B6DDB
:10504000404A43F0805393653E4B9B6D03F0805381
:10505000BB60BB6801237B743B4B1B683A4A43F43B
:1050600080731360FDF7F4F9F86009E0FDF7F0F9DB
:105070000246FB68D31A022B02D90323FB7405E016
:10508000314B1B6803F48073002BEFD0FB7C002BAB
:105090005CD12C4BD3F8903003F440737B617B6977
:1050A000002B1FD07B68D3F884307A699A4219D0DC
:1050B000244BD3F8903023F440737B61214BD3F819
:1050C0009030204A43F48033C2F890301D4BD3F81F
:1050D00090301C4A23F48033C2F89030194A7B691F
:1050E000C2F890307B6903F00103002B16D0FDF766
:1050F000AFF9F8600BE0FDF7ABF90246FB68D31A95
:1051000041F28832934202D90323FB7406E00D4B2F
:10511000D3F8903003F00203002BECD0FB7C002B83
:105120000CD1084BD3F8903023F440727B68D3F84D
:10513000843004491343C1F8903009E0FB7CBB7410
:1051400006E000BF0010024000700040FB7CBB7412
:105150007B7C012B05D19E4B9B6D9D4A23F0805398
:1051600093657B681B6803F00103002B0AD0984B02
:10517000D3F8883023F003027B689B6B9449134378
:10518000C1F888307B681B6803F00203002B0AD04B
:105190008F4BD3F8883023F00C027B68DB6B8C4993
:1051A0001343C1F888307B681B6803F00403002BAD
:1051B0000AD0874BD3F8883023F030027B681B6C11
:1051C00083491343C1F888307B681B6803F00803E8
:1051D000002B0AD07E4BD3F8883023F0C0027B68C6
:1051E0005B6C7B491343C1F888307B681B6803F014
:1051F0001003002B0AD0764BD3F8883023F440728A
:105200007B689B6C72491343C1F888307B681B68CC
:1052100003F02003002B0AD06D4BD3F8883023F421
:1052200040627B68DB6C6A491343C1F888307B6855
:105230001B6803F40073002B0AD0654BD3F8883049
:1052400023F440227B68DB6D61491343C1F8883049
:105250007B681B6803F48063002B0AD05C4BD3F897
:10526000883023F440127B681B6E59491343C1F800
:1052700088307B681B6803F04003002B0AD0544B36
:10528000D3F8883023F440527B681B6D5049134398
:10529000C1F888307B681B6803F08003002B0AD0BC
:1052A0004B4BD3F8883023F440427B685B6D484910
:1052B0001343C1F888307B681B6803F48073002BAC
:1052C0000AD0434BD3F8883023F440327B689B6D7F
:1052D0003F491343C1F888307B681B6803F40053CF
:1052E000002B28D03A4BD3F8883023F040627B68FB
:1052F000DB6E37491343C1F888307B68DB6EB3F14E
:10530000006F06D1324BDB68314A43F48013D3601F
:1053100011E07B68DB6EB3F1806F0CD17B680433E6
:105320000121184600F0C8F80346FB74FB7C002BF3
:1053300001D0FB7CBB747B681B6803F40023002B4B
:1053400028D0234BD3F8883023F040627B681B6F52
:105350001F491343C1F888307B681B6FB3F1006F9E
:1053600006D11B4BDB681A4A43F48013D36011E06B
:105370007B681B6FB3F1806F0CD17B680433012114
:10538000184600F099F80346FB74FB7C002B01D013
:10539000FB7CBB747B681B6803F48023002B2BD041
:1053A0000B4BD3F8883023F040627B685B6F084971
:1053B0001343C1F888307B685B6FB3F1006F09D18C
:1053C000034BDB68024A43F48013D36014E000BF50
:1053D000001002407B685B6FB3F1806F0CD17B687B
:1053E00004330121184600F067F80346FB74FB7C88
:1053F000002B01D0FB7CBB747B681B6803F48043EB
:10540000002B2FD02B4BD3F8883023F040527B68F1
:105410009B6F28491343C1F888307B689B6FB3F1B9
:10542000805F0DD17B6804330221184600F044F8F8
:105430000346FB74FB7C002B14D0FB7CBB7411E097
:105440007B689B6FB3F1005F0CD17B682033022136
:10545000184600F025F90346FB74FB7C002B01D0B5
:10546000FB7CBB747B681B6803F40043002B0AD0F1
:10547000104BD3F8883023F080427B68DB6F0D49F6
:105480001343C1F888307B681B6803F48033002B1A
:105490000BD0084BD3F8883023F000427B68D3F858
:1054A000803004491343C1F88830BB7C1846183754
:1054B000BD4680BD0010024080B584B000AF78606A
:1054C00039600023FB73754BDB6803F00303002B8B
:1054D00018D0724BDB6803F003027B681B689A42AA
:1054E0000DD17B681B68002B09D06C4BDB681B0956
:1054F00003F007035A1C7B685B689A4247D001237C
:10550000FB7344E07B681B68032B18D0032B25D862
:10551000012B02D0022B09D020E0604B1B6803F066
:105520000203002B1DD10123FB731AE05B4B1B68A8
:1055300003F48063002B16D10123FB7313E0574B58
:105540001B6803F40033002B0FD1544B1B6803F48A
:105550008023002B09D10123FB7306E00123FB7399
:1055600004E000BF02E000BF00E000BFFB7B002BB7
:105570000DD14A4BDB6823F073027B6819687B68A6
:105580005B68013B1B010B4344491343CB60FB7B2E
:10559000002B7DD1414B1B68404A23F08063136090
:1055A000FCF756FFB86009E0FCF752FF0246BB6803
:1055B000D31A022B02D90323FB7305E0374B1B6878
:1055C00003F00063002BEFD1FB7B002B60D13B6825
:1055D000002B11D1314B1B6923F41F3323F440738B
:1055E0007A68926811027A68D268120952040A43F2
:1055F0002A4913430B6127E03B68012B12D1274B4B
:105600001B6923F4C00323F4FE437A6892681102F5
:105610007A6812695208013A52050A431F49134336
:105620000B6111E01D4B1B6923F0C06323F4FE43A3
:105630007A68926811027A6852695208013A5206F1
:105640000A43164913430B61144B1B68134A43F07A
:1056500080631360FCF7FCFEB86009E0FCF7F8FE1D
:105660000246BB68D31A022B02D90323FB7305E061
:105670000A4B1B6803F00063002BEFD0FB7B002B71
:1056800006D1064B1A697B689B69044913430B6179
:10569000FB7B18461037BD4680BD00BF001002409E
:1056A00080B584B000AF786039600023FB736A4B2B
:1056B000DB6803F00303002B18D0674BDB6803F0B3
:1056C00003027B681B689A420DD17B681B68002B24
:1056D00009D0614BDB681B0903F007035A1C7B6888
:1056E0005B689A4247D00123FB7344E07B681B68E8
:1056F000032B18D0032B25D8012B02D0022B09D065
:1057000020E0554B1B6803F00203002B1DD1012341
:10571000FB731AE0504B1B6803F48063002B16D117
:105720000123FB7313E04C4B1B6803F40033002B85
:105730000FD1494B1B6803F48023002B09D10123AF
:10574000FB7306E00123FB7304E000BF02E000BF2F
:1057500000E000BFFB7B002B0DD13F4BDB6823F04B
:1057600073027B6819687B685B68013B1B010B4314
:1057700039491343CB60FB7B002B67D1364B1B6849
:10578000354A23F080531360FCF762FEB86009E0ED
:10579000FCF75EFE0246BB68D31A022B02D9032334
:1057A000FB7305E02C4B1B6803F00053002BEFD17B
:1057B000FB7B002B4AD13B68002B11D1264B5B6948
:1057C00023F41F3323F440737A68926811027A68D5
:1057D000D268120952040A431F4913434B6111E076
:1057E0001D4B5B6923F0C06323F4FE437A68926823
:1057F00011027A6812695208013A52060A431649A0
:1058000013434B61144B1B68134A43F080531360DE
:10581000FCF71EFEB86009E0FCF71AFE0246BB6802
:10582000D31A022B02D90323FB7305E00A4B1B6832
:1058300003F00053002BEFD0FB7B002B06D1064B6F
:105840005A697B685B69044913434B61FB7B1846CB
:105850001037BD4680BD00BF0010024080B584B047
:1058600000AF78607B68002B01D1012395E07B6855
:105870005B6A002B08D17B685B68B3F5827F09D037
:105880007B680022DA6105E07B6800221A617B6890
:1058900000225A617B6800229A627B6893F85D302F
:1058A000DBB2002B06D17B68002283F85C2078688D
:1058B000FCF740FB7B68022283F85D207B681B6855
:1058C0001A687B681B6822F040021A607B68DB68FC
:1058D000B3F5E06F02D90023FB6002E04FF4805380
:1058E000FB607B68DB68B3F5706F07D07B68DB68B3
:1058F000B3F5E06F02D07B6800229A627B685B6838
:1059000003F482727B689B6803F404431A437B6848
:105910001B6903F002031A437B685B6903F0010310
:105920001A437B689B6903F400731A437B68DB6945
:1059300003F038031A437B681B6A03F0800342EAD2
:1059400003017B689B6A03F400527B681B680A436F
:105950001A607B689B691B0C03F004027B685B6A1E
:1059600003F010031A437B685B6B03F008031A43D0
:105970007B68DB6803F4706342EA0301FB6803F4AD
:1059800080527B681B680A435A607B6800221A6653
:105990007B68012283F85D20002318461037BD463E
:1059A00080BD80B588B000AFF860B9603B60134639
:1059B000FB800023FB77FB6893F85C30012B01D15F
:1059C000022358E1FB68012283F85C20FCF740FDCC
:1059D000B861FB88FB82FB6893F85D30DBB2012B7A
:1059E00002D00223FB773DE1BB68002B02D0FB888D
:1059F000002B02D10123FB7734E1FB68032283F8FB
:105A00005D20FB6800221A66FB68BA689A63FB682F
:105A1000FA889A87FB68FA88DA87FB6800221A649A
:105A2000FB680022A3F84420FB680022A3F846206C
:105A3000FB6800221A65FB680022DA64FB689B6839
:105A4000B3F5004F0FD1FB681B681A68FB681B6831
:105A500022F040021A60FB681B681A68FB681B682A
:105A600042F480421A60FB681B681B6803F0400325
:105A7000402B07D0FB681B681A68FB681B6842F064
:105A800040021A60FB68DB68B3F5E06F4BD9FB6836
:105A90005B68002B02D0FB8A012B3ED1FB689B6B1D
:105AA0001A88FB681B68DA60FB689B6B9A1CFB68B2
:105AB0009A63FB68DB8F9BB2013B9AB2FB68DA8783
:105AC0002BE0FB681B689B6803F00203022B12D1DA
:105AD000FB689B6B1A88FB681B68DA60FB689B6B32
